:03000000020909E9
:0C090900787FE4F6D8FD75812C020950BF
:100A17002B2B2B002B6F6B0041542B454E544D0D48
:100A27000A0041542B574D4F44450D0A0041542BA2
:100A37004E4D41430D0A0046483C3C0046573C3C5E
:100A47000046533C3C0043413C3C0043433C3C0094
:100A570044533C3C004C423C3C004C443C3C002B47
:100A67006F0041500041542B57414B45590D0A0027
:100A77004F50454E004D414300444D3A003C3C0029
:100B4700C102C100C183C101020B000002090000FC
:100B5700020D0000020F0000010800021100000250
:100B670017000002190000021500000213000060C0
:100B7700200320000000000000000000000000002B
:100B8700000000000000000000000000000000005E
:030B97000000005B
:10085C00781CE6FF74002518F58274003517F583B3
:10086C00227D007E037F207B017A007900227402B6
:10087C002518F518E43517F517FC74002518F582C2
:10088C0074003CF583E0781BF60518E518229000FF
:10089C0003E0781BF6A3E008F618E6F51908E6F570
:1008AC001A22E4F00518E51822E4FCFDF9F8C3025D
:1008BC00080174002514F58274003513F583221297
:1008CC000AEC7524FF75250A75261B22EFF0051816
:1008DC00E51822C3E512781C96E511189622E0FF64
:1008EC00C3E5129FE511940022C3E518951AE5178C
:0D08FC00951922C3E51894F4E51794022223
:100AEC00E4F519F51AF513F514AE19AF1AE4FCFD7B
:100AFC007B407A9CF9F8D3120801403C30982F12B5
:100B0C0008BEE599F01208BEE0B43C1174FF251440
:100B1C00F58274FF3513F583E0643C601BC29805C5
:100B2C0014E51470020513E4F519F51A80BB051AC7
:0B0B3C00E51A70B5051980B1C29822BF
:0A0D7E00C2998F993099FDC29922A5
:0A0C96008B218A2289238C248D25EE
:100CA000E4FDFCC3ED9525EC95245018AB21AA2258
:100CB000A9238D828C831207C6FF120D7E0DBD0005
:040CC000010C80DFC4
:010CC400220D
:100D2900538E7F5389F0438902758AE8758CE8C22E
:080D39008DC28CD2A9D2AF22B9
:03000B00020D6C77
:100D6C00C0E00512E51270020511300202B2A5D0E6
:020D7C00E03263
:100D5900438780759850438E04759CF4438E0143F4
:030D69008E1022C7
:070003004391105392EF221C
:0C000E007F017ED87D23DDFEDEFCDFFAE2
:01001A0022C3
:100D4100538EBF53890F438910E4F58B758DDCC237
:080D51008FD28ED2ABD2AF228B
:03001B00020BEAEB
:100BEA00C0E0C0D0E50A45096017050AE50A7002A7
:100BFA000509643245097021B2B6F509750A018002
:100C0A0018050CE50C7002050BB4600DE50BB4EA8F
:100C1A0008D201750B00750C00758B00758DDCD23E
:060C2A008ED0D0D0E032B4
:100B9B007BFF7A0A79177D037C00120C9612086D85
:100BAB00120817120AEC900000E064617026FD1227
:100BBB00086F1208177F61120D7E1208CB12087393
:100BCB00120995E94A4B600CD20012086D120817F6
:0F0BDB00E4FEFF2212086D1208177E007F012230
:100C64007BFF7A0A791F7D097C00120C961208CB4F
:100C7400120873120995E94A4B600CC20012086D00
:100C8400120817E4FEFF2212086D1208177E007F77
:020C940001223B
:10001E00C284D2B6C283120D59120D29120D41128D
:10002E000003120CC5300319C28E200003120B9B65
:10003E0030000C12000E7A0A79291204F2C203D291
:10004E008EE50A4509701EA29492B6300117C28E33
:10005E00200003120B9B30000C12000E7A0A79342A
:10006E007D09120503209447C28EA29492B6209465
:10007E0022050EE50E7002050DAE0DFF7BFF7AFF19
:10008E001208B570E9F50DF50E0510E51070DF05D7
:10009E000F80DBC3E5109405E50F9400400FC200FE
:1000AE00C201D203E4F50DF50EF50FF510D28E2038
:1000BE0098030204E0120AEC900002E0643A600336
:1000CE00020400C28E900000E024BD700302022ED6
:1000DE0014700302038924F870030203D22406600D
:1000EE00030203FBC2B6900001E064486003020104
:1000FE008AF51775180412089AD28C1208F5506EEC
:10010E00E4F511F512D2020518E518700205172450
:10011E0000120864E0FF701112087A7002051724AD
:10012E0000120864E008F68007E4781BF608A607BC
:10013E001208DF40FBE4F511F512C202D2A5051834
:10014E00E518700205172400120864E0FF70111202
:10015E00087A700205172400120864E008F680077A
:10016E00E4781BF608A6071208DF508F80F9C28CC0
:10017E007A0A793E1204E8D2B60203FB900001E03F
:10018E0064576003020217F515F516D28CE4F511CB
:10019E00F512D284F517751804C3E512941CE511F7
:1001AE00940040F5E4F511F512C28412089AC3E5E5
:1001BE00129428E511940340F51208F55030E4F539
:1001CE0011F512D2840518E5187002051712086091
:1001DE001208EA40F8E4F511F512C2840518E51884
:1001EE00700205171208601208EA50CD80F6051647
:1001FE00E51670020515640645157091C28CC28411
:10020E007BFF7A0A79430203CC900001E0645360CD
:10021E00030203FB7BFF7A0A79487D04FC0203F894
:10022E007A0A794D1204E8751700751805E4F51968
:10023E00F51AD28C1208FF40030203857511007562
:10024E00120130A4FDD3E5129405E511940050037C
:10025E0002034B781BA61108A61275110075120128
:10026E0018E6D3940040201208601208AE70020502
:10027E001724001208641208AE7002051712085EE9
:10028E001208D87002051712085C1208D870020501
:10029E001730A462D3E5129470E511941740F21250
:1002AE0008601208AE70020517781BA61708A6186C
:1002BE0018E6900003F008E6A3F0120860743CF014
:1002CE000518E518700205172400120864743CF036
:1002DE000518E518700205179000007443F0A3741A
:1002EE0048F0A3743AF0120873AD18AC17120C96BE
:1002FE007517027518F41208FF4003020242781BAC
:10030E00A61108A61218E6940040201208601208E2
:10031E00AE7002051724001208641208AE700205B2
:10032E001712085E1208D87002051712085C120820
:10033E00D870020517E4F519F51A02024220A4033B
:10034E00020242AE11AF127B507AC31208B550EDC5
:10035E00E4F511F512051AE51A70020519941EE559
:10036E0019940040D87517027518F47A0A79527DDF
:10037E0004120503020242C28C8072900001E02436
:10038E00BC603124F0706612086D120817900000E0
:10039E007444F0A37454F0120A87900002EFF064D4
:1003AE005560F4900003743CF0A3F01208737D05C1
:1003BE007C008036D203C2007BFF7A0A79577D0417
:1003CE007C008026900001E0FEB4420ED2837BFFBB
:1003DE007A0A795C7D047C008010EEB4440FC283EF
:1003EE007BFF7A0A79617D047C00120C96D28E0214
:1003FE0004E07524FF75250A75266612087312042B
:10040E00FC70030204E07524FF75250A7526691237
:10041E0008731204FC600D12000E7A0A796C120435
:10042E00F20204E07524FF75250A7526771208730B
:10043E00120995E94A4B601BC203750900750A0142
:10044E00D28E120C64EF4E60030204E0C203C200AF
:10045E000204E07524FF75250A75267C12087312B6
:10046E000995E94A4B605C7E007F207D007B017A16
:10047E0003792012081778207C037D017B017A0016
:10048E0079097E007F1A1207A0120C64EF4E702AB3
:10049E00C201C2007BFF7A0A79807D03FC120C96A2
:1004AE007B017A0379207D1A7C00120C967BFF7AF1
:1004BE000A79847D027C00120C96E4F50BF50CD2C1
:1004CE008E800F120C64EF4E7008C203C200F50945
:1004DE00F50AE4900002F00200337BFF7D047C00FD
:1004EE00120C96227BFF7D0A7C00120C96221209BA
:0D04FE0095E94A4B227BFF7C00120C9622F0
:040D0F007FFE7E01E4
:100D1300EF7802C333CE33CED8F9FFEF1FAC0670A2
:060D2300011E4C70F622D7
:040D92007F50DFFEB1
:010D9600223A
:090D8800007F017EF4DEFEDFFCB9
:010D9100223F
:100CC500D2827F0A7E00120D13C282120D0FD282CC
:100CD5007F1E7E00120D133082077F1E7E00120DCF
:070CE50013120D0FD2822251
:100C3000E4FDFBEDC313FDD2820000C28200000080
:100C4000D28200000000003082034305807F237EB3
:100C500000120D130BBB08DBD2827F237E00120D26
:030C600013AF05CA
:010C6300226E
:020CEC00AD0752
:100CEE00E4FBC282120D92ED139282EDC313FD123C
:100CFE000D88D2820BBB08EAD2827F417E00020DA4
:010D0E0013D1
:100A8700E4FAFFF521F522120CC57FCC120CEC7F9E
:100A970044120CEC120D0F120CC57FCC120CEC7F1C
:100AA700BE120CEC120C30AA07120C307521008F05
:100AB70022E522752200F521AF02EF4222E52154FB
:100AC70007FCAD22E4120616E4FBFA7980783D12A2
:100AD700050B12064FE52154F86009C3E49FFFE4B4
:040AE7009EFE8000EF
:010AEB0022E8
:10050B00EC4D6011E8497017ED33EC3304600DE4EA
:10051B00FCFFFEFD22E933E8330470F80206BB1240
:10052B00068658046009E4CC248150062850090241
:10053B0006C52840030206C2C0E0EB4A7044B980EE
:10054B0006D0E0FB0206B1EF4E701CBD8008EBFF3E
:10055B00EAFEE9FD80EBE98DF0A4FEE5F00205F47F
:10056B00E9CDF9EAFEEBFFEF89F0A4FCE5F0CE89CB
:10057B00F0A42EFFE435F0CD89F0A42DFEE435F088
:10058B008067EF4E7005BD80D780C3EF8BF0A4ACB6
:10059B00F0EE8BF0A42CFCE435F0F8EF8AF0A42CF1
:1005AB00E5F038FCE433CB8DF0A42CFCE5F03BF804
:1005BB00EE8AF0A42CFCE5F038F8E433CF89F0A4F4
:1005CB002CFCE5F038CF3400CE89F0A42FFFE5F0FA
:1005DB003EFEE433C98DF0A42EFEE5F039CD8AF052
:1005EB00A42FFFE5F03EFEE43DFD33D0E0FB5007CA
:1005FB000BBB000F0206C5EC2CFCEF33FFEE33FEFA
:06060B00ED33FD02069D27
:1006110075F020800E75F010800575F0087D007E64
:10062100007F003392D530D5031207F3EC3340102D
:10063100EF33FFEE33FEED33FDEC33FCD5F0ED226D
:0E064100E5F0247EA2D513CC92E7CDCEFF22A9
:10064F00EDD2E7CD33EC3392D524814006E4FFFEA3
:10065F00FDFC22FCE4CFCECDCC24E0501174FF8002
:10066F00EDC3CC13CCCD13CDCE13CECF13CF04709F
:07067F00F030D5DE0207F3A5
:10068600E9D2E7C933E833F892D5EDD2E7CD33ECBA
:0706960033FC5002B2D52233
:10069D00EC30E7100FBF000C0EBE00080DBD0004BE
:1006AD000BEB6014A2D5EB13FCED92E7FD2274FF6A
:1006BD00FCFDFEFF22E480F8A2D574FF13FC7D80C3
:0306CD00E480EFD7
:1009150002001EE493A3F8E493A34003F68001F2DA
:1009250008DFF48029E493A3F85407240CC8C333E3
:10093500C4540F4420C8834004F456800146F6DFB2
:10094500E4800B0102040810204080900B47E47EF0
:10095500019360BCA3FF543F30E509541FFEE493A7
:10096500A360010ECF54C025E060A840B8E493A36E
:10097500FAE493A3F8E493A3C8C582C8CAC583CA99
:10098500F0A3C8C582C8CAC583CADFE9DEE780BE51
:010B9A00005A
:1006D000E709F608DFFA8046E709F208DFFA803E0C
:1006E00088828C83E709F0A3DFFA8032E309F608F9
:1006F000DFFA8078E309F208DFFA807088828C8361
:10070000E309F0A3DFFA806489828A83E0A3F60814
:10071000DFFA805889828A83E0A3F208DFFA804CEE
:1007200080D280FA80C680D4806980F280338010C5
:1007300080A680EA809A80A880DA80E280CA80332E
:1007400089828A83ECFAE493A3C8C582C8CCC583A6
:10075000CCF0A3C8C582C8CCC583CCDFE9DEE78076
:100760000D89828A83E493A3F608DFF9ECFAA9F0F5
:10077000EDFB2289828A83ECFAE0A3C8C582C8CC4B
:10078000C583CCF0A3C8C582C8CCC583CCDFEADE64
:10079000E880DB89828A83E493A3F208DFF980CCC6
:1007A00088F0EF60010E4E60C388F0ED2402B404BF
:1007B0000050B9F582EB2402B4040050AF23234566
:0607C00082239007207364
:1007C600BB010CE58229F582E5833AF583E02250E8
:1007D60006E92582F8E622BBFE06E92582F8E22232
:0D07E600E58229F582E5833AF583E493224C
:0E07F300C3E49FFFE49EFEE49DFDE49CFC2217
:10080100EB9FF5F0EA9E42F0E99D42F0EC6480C86E
:0608110064809845F0220E
:100995008B218A228923AB24AA25A9261208436024
:1009A50063AB21AA22A923120843605F852427850A
:1009B50025288526298B2A8A2B892CAB27AA28A9A5
:1009C50029120843FF6023AB2AAA2BA92C1208433E
:1009D5006F7017042529F529E43528F528740125B4
:1009E5002CF52CE4352BF52B80D1AB27AA28A9298A
:1009F5001208437002800D74012523F523E4352286
:100A0500F522809DAB21AA22A923227B007A0079B9
:020A15000022BD
:10081700EF4E6012EF60010EEDBB010B89828A83F8
:10082700F0A3DFFCDEFA2289F05007F709DFFCA905
:0C083700F022BBFEFCF309DFFCA9F0225C
:10084300BB010689828A83E0225002E722BBFE02B3
:09085300E32289828A83E49322E6
:00000001FF
