:0300000002092BC7
:0C092B00787FE4F6D8FD75812C0209727B
:100A39002B2B2B002B6F6B0041542B454E544D0D26
:100A49000A0041542B574D4F44450D0A0041542B80
:100A59004E4D41430D0A00444D3A003C3C00464886
:100A69003C3C0046573C3C0046533C3C0043413C1F
:100A79003C0043433C3C0044533C3C004C423C3C1E
:100A8900004C443C3C002B6F0041500041542B5713
:100A9900414B45590D0A004F50454E004D41430009
:050AA9002B6F6B3D0006
:100C0300C102C100C183C101020B0000020900003F
:100C1300020D0000020F0000010800021100000293
:100C23001700000219000002150000021300005013
:100C3300032000000000000000000000000000008E
:020C43000000AF
:10087700781CE6FF74002518F58274003517F58398
:10088700227D007E037F207B017A0079002274029B
:100897002518F518E43517F517FC74002518F582A7
:1008A70074003CF583E0781BF60518E518229000E4
:1008B70003E0781BF6A3E008F618E6F51908E6F555
:1008C7001A22E4F00518E51822E4FCFDF9F8C30242
:1008D700081C74002514F58274003513F583221261
:1008E7000B137524FF75250A75263D22EFF00518B1
:1008F700E51822C3E512781C96E511189622E0FF49
:10090700C3E5129FE511940022C3E518951AE51770
:10091700951922C3E51894F4E5179402227BFF7D0D
:04092700047C00222A
:100B1300E4F519F51AF513F514AE19AF1AE4FCFD53
:100B23007B407A9CF9F8D312081C403C30982F1272
:100B330008D9E599F01208D9E0B43C1174FF2514E3
:100B4300F58274FF3513F583E0643C601BC298059E
:100B530014E51470020513E4F519F51A80BB051AA0
:0B0B6300E51A70B5051980B1C2982298
:0A0D9400C2998F993099FDC299228F
:0A0CAC008B218A2289238C248D25D8
:100CB600E4FDFCC3ED9525EC95245018AB21AA2242
:100CC600A9238D828C831207E1FF120D940DBD00BE
:040CD600010C80DFAE
:010CDA0022F7
:100D3F00538E7F5389F0438902758AE8758CE8C218
:080D4F008DC28CD2A9D2AF22A3
:03000B00020D8261
:100D8200C0E00512E51270020511300202B2A5D0D0
:020D9200E0324D
:100D6F00438780759850438E04759CF4438E0143DE
:030D7F008E1022B1
:070003004391105392EF221C
:0C000E007F017ED87D23DDFEDEFCDFFAE2
:01001A0022C3
:100D5700538EBF53890F438910E4F58B758DDCC221
:080D67008FD28ED2ABD2AF2275
:03001B00020BBD18
:100BBD00C0E0C0D0E50A45096017050AE50A7002D4
:100BCD000509643245097021B2B6F509750A01802F
:100BDD0018050CE50C7002050BB4580DE50BB402AD
:100BED0008D201750B00750C00758B00758DDCD26C
:060BFD008ED0D0D0E032E2
:100B6E007BFF7A0A79397D037C00120CAC1208885F
:100B7E00120832120B13900000E064617026FD1211
:100B8E00088A1208327F61120D941208E612088E3E
:100B9E001209B7E94A4B600CD200120888120832CB
:0F0BAE00E4FEFF221208881208327E007F012227
:100C7A007BFF7A0A79417D097C00120CAC1208E6E6
:100C8A0012088E1209B7E94A4B600CC20012088892
:100C9A00120832E4FEFF221208881208327E007F10
:020CAA00012225
:10001E00C284D2B6C283120D6F120D3F120D57124B
:10002E000003120CDB300319C28E200003120B6E7C
:10003E0030000C12000E7A0A794B120515C203D24B
:10004E008EE50A4509703AA29492B6300133C28EFB
:10005E00900320E0701B200003120B6E3000221262
:10006E00000E7BFF7A0A79567D097C00120CAC805B
:10007E0010C201C2007C001204E5E4F50BF50CD2AF
:10008E008E209447C28EA29492B6209422050EE53D
:10009E000E7002050DAE0DFF7BFF7AFF1208D070B9
:1000AE00E9F50DF50E0510E51070DF050F80DBC3C9
:1000BE00E5109405E50F9400400FC200C201D20373
:1000CE00E4F50DF50EF50FF510D28E20980302040F
:1000DE00DD120B13900002E0643A6003020419C2B1
:1000EE008E900000E024BD700302024A14700302D9
:1000FE0003A624F870030203EE2406600302041420
:10010E00C2B6900001E0644860030201A6F51775BF
:10011E0018041208B5D28C120910506EE4F511F5C0
:10012E0012D2020518E51870020517240012087F76
:10013E00E0FF701112089570020517240012087F57
:10014E00E008F68007E4781BF608A6071208FA40C6
:10015E00FBE4F511F512C202D2A50518E5187002DE
:10016E000517240012087FE0FF7011120895700227
:10017E000517240012087FE008F68007E4781BF6C6
:10018E0008A6071208FA508F80F9C28C7A0A79678E
:10019E0012050BD2B6020414900001E064576003FE
:1001AE00020233F515F516D28CE4F511F512D28450
:1001BE00F517751804C3E512941CE511940040F56B
:1001CE00E4F511F512C2841208B5C3E5129428E5C0
:1001DE0011940340F51209105030E4F511F512D2C6
:1001EE00840518E5187002051712087B12090540E0
:1001FE00F8E4F511F512C2840518E518700205171A
:10020E0012087B12090550CD80F60516E516700210
:10021E000515640645157091C28CC2847BFF7A0A5F
:10022E00796C0203E8900001E06453600302041449
:10023E007BFF7A0A79717D04FC0204117A0A7976C1
:10024E0012050B751700751805E4F519F51AD28C01
:10025E0012091A40030203A275110075120130A48F
:10026E00FDD3E5129405E51194005003020367785F
:10027E001BA61108A61275110075120118E6D3946B
:10028E0000402012087B1208C970020517240012C4
:10029E00087F1208C9700205171208791208F37048
:1002AE000205171208771208F37002051730A462C0
:1002BE00D3E5129470E511941740F212087B1208E0
:1002CE00C970020517781BA61708A61818E6900025
:1002DE0003F008E6A3F012087B743CF00518E5184D
:1002EE0070020517240012087F743CF00518E518FB
:1002FE00700205179000007443F0A37448F0A374C5
:10030E003AF012088EAD18AC17120CAC75170275B8
:10031E0018F412091A400302025E781BA61108A6F1
:10032E001218E69400402012087B1208C9700205CC
:10033E0017240012087F1208C970020517120879D7
:10034E001208F3700205171208771208F3700205EF
:10035E0017E4F519F51A02025E20A40302025EAE3E
:10036E0011AF127B507AC31208D050EDE4F511F59F
:10037E0012051AE51A70020519941EE5199400402B
:10038E00D87517027518F47A0A797B120924120CA3
:10039E00AC02025EC28C806E900001E024AD603033
:1003AE001470631208881208329000007444F0A38F
:1003BE007454F0120AAE900002EFF0645560F4909F
:1003CE000003743CF0A3F012088E7D057C00803390
:1003DE00D203C2007BFF7A0A79807D047C008023E1
:1003EE00900001E0FEB4420BD2837A0A798512099D
:1003FE00248010EEB4440FC2837BFF7A0A798A7D83
:10040E00047C00120CACD28E0204DD7524FF75251F
:10041E000A75268F12088E12051F70030204DD75F1
:10042E0024FF75250A75269212088E12051F600D7F
:10043E0012000E7A0A79951205150204DD7524FF55
:10044E0075250A7526A012088E1209B7E94A4B6067
:10045E0018C203750900750A01D28E120C7AEF4E7E
:10046E00706DC203C2000204DD7524FF75250A7586
:10047E0026A512088E1209B7E94A4B60437E007F0B
:10048E00107D007B017A0379201208327524FF75E6
:10049E00250A7526A912088E1209B778207C037DCD
:1004AE00017E007F101207BB120C7AEF4E7008C24D
:1004BE0001C200FC1204E5E4F50BF50CD28E800FA0
:1004CE00120C7AEF4E7008C203C200F509F50AE469
:1004DE00900002F00200337BFF7A0A79607D0312EE
:1004EE000CAC7B017A0379207D107C00120CAC7B66
:1004FE00FF7A0A79647D027C00120CAC227BFF7DB0
:10050E00047C00120CAC227BFF7D0A7C00120CAC2A
:08051E00221209B7E94A4B2241
:040D25007FFE7E01CE
:100D2900EF7802C333CE33CED8F9FFEF1FAC06708C
:060D3900011E4C70F622C1
:040DA8007F50DFFE9B
:010DAC002224
:090D9E00007F017EF4DEFEDFFCA3
:010DA7002229
:100CDB00D2827F0A7E00120D29C282120D25D2828A
:100CEB007F1E7E00120D293082077F1E7E00120DA3
:070CFB0029120D25D282220F
:100C4600E4FDFBEDC313FDD2820000C2820000006A
:100C5600D28200000000003082034305807F237E9D
:100C660000120D290BBB08DBD2827F237E00120DFA
:030C760029AF059E
:010C79002258
:020D0200AD073B
:100D0400E4FBC282120DA8ED139282EDC313FD120F
:100D14000D9ED2820BBB08EAD2827F417E00020D77
:010D240029A5
:100AAE00E4FAFFF521F522120CDB7FCC120D027F4A
:100ABE0044120D02120D25120CDB7FCC120D027F9B
:100ACE00BE120D02120C46AA07120C467521008F9B
:100ADE0022E522752200F521AF02EF4222E52154D4
:100AEE0007FCAD22E4120631E4FBFA7980783D1260
:100AFE00052612066AE52154F86009C3E49FFFE457
:040B0E009EFE8000C7
:010B120022C0
:10052600EC4D6011E8497017ED33EC3304600DE4CF
:10053600FCFFFEFD22E933E8330470F80206D6120A
:1005460006A158046009E4CC24815006285009020B
:1005560006E02840030206DDC0E0EB4A7044B9809D
:1005660006D0E0FB0206CCEF4E701CBD8008EBFF08
:10057600EAFEE9FD80EBE98DF0A4FEE5F002060F48
:10058600E9CDF9EAFEEBFFEF89F0A4FCE5F0CE89B0
:10059600F0A42EFFE435F0CD89F0A42DFEE435F06D
:1005A6008067EF4E7005BD80D780C3EF8BF0A4AC9B
:1005B600F0EE8BF0A42CFCE435F0F8EF8AF0A42CD6
:1005C600E5F038FCE433CB8DF0A42CFCE5F03BF8E9
:1005D600EE8AF0A42CFCE5F038F8E433CF89F0A4D9
:1005E6002CFCE5F038CF3400CE89F0A42FFFE5F0DF
:1005F6003EFEE433C98DF0A42EFEE5F039CD8AF037
:10060600A42FFFE5F03EFEE43DFD33D0E0FB5007AE
:100616000BBB000F0206E0EC2CFCEF33FFEE33FEC3
:06062600ED33FD0206B8F1
:10062C0075F020800E75F010800575F0087D007E49
:10063C00007F003392D530D50312080EEC334010F6
:10064C00EF33FFEE33FEED33FDEC33FCD5F0ED2252
:0E065C00E5F0247EA2D513CC92E7CDCEFF228E
:10066A00EDD2E7CD33EC3392D524814006E4FFFE88
:10067A00FDFC22FCE4CFCECDCC24E0501174FF80E7
:10068A00EDC3CC13CCCD13CDCE13CECF13CF047084
:07069A00F030D5DE02080E6E
:1006A100E9D2E7C933E833F892D5EDD2E7CD33EC9F
:0706B10033FC5002B2D52218
:1006B800EC30E7100FBF000C0EBE00080DBD0004A3
:1006C8000BEB6014A2D5EB13FCED92E7FD2274FF4F
:1006D800FCFDFEFF22E480F8A2D574FF13FC7D80A8
:0306E800E480EFBC
:1009370002001EE493A3F8E493A34003F68001F2B8
:1009470008DFF48029E493A3F85407240CC8C333C1
:10095700C4540F4420C8834004F456800146F6DF90
:10096700E4800B0102040810204080900C03E47E11
:10097700019360BCA3FF543F30E509541FFEE49385
:10098700A360010ECF54C025E060A840B8E493A34C
:10099700FAE493A3F8E493A3C8C582C8CAC583CA77
:1009A700F0A3C8C582C8CAC583CADFE9DEE780BE2F
:010C450000AE
:1006EB00E709F608DFFA8046E709F208DFFA803EF1
:1006FB0088828C83E709F0A3DFFA8032E309F608DE
:10070B00DFFA8078E309F208DFFA807088828C8345
:10071B00E309F0A3DFFA806489828A83E0A3F608F9
:10072B00DFFA805889828A83E0A3F208DFFA804CD3
:10073B0080D280FA80C680D4806980F280338010AA
:10074B0080A680EA809A80A880DA80E280CA803313
:10075B0089828A83ECFAE493A3C8C582C8CCC5838B
:10076B00CCF0A3C8C582C8CCC583CCDFE9DEE7805B
:10077B000D89828A83E493A3F608DFF9ECFAA9F0DA
:10078B00EDFB2289828A83ECFAE0A3C8C582C8CC30
:10079B00C583CCF0A3C8C582C8CCC583CCDFEADE49
:1007AB00E880DB89828A83E493A3F208DFF980CCAB
:1007BB0088F0EF60010E4E60C388F0ED2402B404A4
:1007CB000050B9F582EB2402B4040050AF2323454B
:0607DB00822390073B732E
:1007E100BB010CE58229F582E5833AF583E02250CD
:1007F10006E92582F8E622BBFE06E92582F8E22217
:0D080100E58229F582E5833AF583E4932230
:0E080E00C3E49FFFE49EFEE49DFDE49CFC22FB
:10081C00EB9FF5F0EA9E42F0E99D42F0EC6480C853
:06082C0064809845F022F3
:1009B7008B218A228923AB24AA25A92612085E60E7
:1009C70063AB21AA22A92312085E605F85242785CD
:1009D70025288526298B2A8A2B892CAB27AA28A983
:1009E7002912085EFF6023AB2AAA2BA92C12085EE6
:1009F7006F7017042529F529E43528F52874012592
:100A07002CF52CE4352BF52B80D1AB27AA28A92967
:100A170012085E7002800D74012523F523E4352248
:100A2700F522809DAB21AA22A923227B007A007997
:020A370000229B
:10083200EF4E6012EF60010EEDBB010B89828A83DD
:10084200F0A3DFFCDEFA2289F05007F709DFFCA9EA
:0C085200F022BBFEFCF309DFFCA9F02241
:10085E00BB010689828A83E0225002E722BBFE0298
:09086E00E32289828A83E49322CB
:00000001FF
