:03000000020745AF
:0C074500787FE4F6D8FD75812C02078C4B
:100913002B2B2B002B6F6B0041542B454E544D0D4D
:100923000A0041542B574D4F44450D0A0046483C9D
:100933003C0046573C3C0046533C3C0043413C3C56
:100943000043433C3C004C423C3C004C443C3C0098
:1009530053443C3C002B6F0041500041542B574102
:0B0963004B45590D0A004F50454E0057
:100A7900C101C100C18202090000020B0000010886
:100A890000020D000002130000021500000211000F
:050A990000020F000047
:100698007818E6FF74002514F58274003513F58385
:1006A800227D007E037F207B017A0079002274027C
:1006B8002514F514E43513F513FC74002514F5829C
:1006C80074003CF583E07817F60514E514229000D1
:1006D80003E07817F6A3E008F618E6F51508E6F53E
:1006E8001622E4F00514E51422E4FCFDF9F8C3022F
:1006F800063D74002510F5827400350FF58322122B
:1007080008B87524FF75250975261722EFF005141A
:10071800E51422C3E50E781896E50D189622E0FF39
:10072800C3E50E9FE50D940022C3E5149516E51365
:0D073800951522C3E51494F4E513940222F4
:1008B800E4F515F516F50FF510AE15AF16E4FCFDC9
:1008C8007B407A9CF9F8D312063D403C30982F12B1
:1008D80006FAE599F01206FAE0B43C1174FF251007
:1008E800F58274FF350FF583E0643C601BC2980500
:1008F80010E5107002050FE4F515F51680BB051616
:0B090800E51670B5051580B1C29822FD
:0A0B3E00C2998F993099FDC29922E7
:0A0A23008B218A2289238C248D2563
:100A2D00E4FDFCC3ED9525EC95245018AB21AA22CD
:100A3D00A9238D828C83120602FF120B3E0DBD0081
:040A4D00010C80DF39
:010A51002282
:100ADC00538E7F5389F0438902758AE8758CE8C27E
:080AEC008DC28CD2A9D2AF2209
:03000B00020B07DE
:100B0700C0E0050EE50E7002050D300102B2A5D05A
:020B1700E032CA
:100AF400438780759850438E04759CF4438E01435C
:030B04008E10222E
:070003004391105392EF221C
:0C0B19007F017ED87D23DDFEDEFCDFFACC
:010B250022AD
:0C0B26007F097E687D8BDDFEDEFCDFFABF
:010B320022A0
:0B0B3300B2B6120B26120B26B2B6223F
:10096E007BFF7A0979137D037C00120A231206A9F4
:10097E001206531208B8900000E064617026FD1252
:10098E0006AB1206537F61120B3E1207071206AF1B
:10099E001207D1E94A4B600CD2001206A912065377
:0F09AE00E4FEFF221206A91206537E007F0122EB
:1009F1007BFF7A09791B7D097C00120A2312070704
:100A01001206AF1207D1E94A4B600CC2001206A9C7
:100A1100120653E4FEFF221206A91206537E007F3E
:020A21000122B0
:10000E00C284D2B6C283120AF4120ADC12000312A0
:10001E000A5230021B20000312096E300012120B1E
:10002E00197BFF7A0979257D0A7C00120A23C20208
:10003E00A29492B620943D209422050AE50A7002FD
:10004E000509AE09FF7BFF7AFF1206F170E9F5098B
:10005E00F50A050CE50C70DF050B80DBC3E50C948F
:10006E0005E50B9400400DC200D202E4F509F50A35
:10007E00F50BF50C2098030204241208B890000228
:10008E00E0643A60030203CA900000E024BD7003EE
:10009E000201F514700302035524F8700302039055
:1000AE0024F970030203B3240D6003020424C2B6C4
:1000BE00900001E064486003020154F513751404C6
:1000CE001206D6D28C120731506EE4F50DF50ED213
:1000DE00010514E5147002051324001206A0E0FFBA
:1000EE0070111206B67002051324001206A0E00865
:1000FE00F68007E47817F608A60712071B40FBE404
:10010E00F50DF50EC201D2A50514E5147002051306
:10011E0024001206A0E0FF70111206B6700205133D
:10012E0024001206A0E008F68007E47817F608A669
:10013E000712071B508F80F9C28C7A09793012048E
:10014E002CD2B6020424900001E064576003020131
:10015E00E1F511F512D28CE4F50DF50ED284F513FE
:10016E00751404C3E50E941CE50D940040F5E4F5FA
:10017E000DF50EC2841206D6C3E50E9428E50D9435
:10018E000340F51207315030E4F50DF50ED284051B
:10019E0014E5147002051312069C12072640F8E4AB
:1001AE00F50DF50EC2840514E51470020513120642
:1001BE009C12072650CD80F60512E512700205112D
:1001CE00640645117091C28CC2847BFF7A09793521
:1001DE000203A0900001E0645360030204247BFF3D
:1001EE007A09793A0203C57A09793F12042C7513FC
:1001FE0000751405E4F515F516D28C12073B400375
:10020E00020350750D00750E0130A4FDD3E50E945A
:10021E0005E50D940050030203127817A60D08A6EB
:10022E000E750D00750E0118E6D3940040201206CF
:10023E009C1206EA7002051324001206A01206EAAA
:10024E007002051312069A12071470020513120695
:10025E00981207147002051330A462D3E50E947041
:10026E00E50D941740F212069C1206EA7002051371
:10027E007817A61308A61418E6900003F008E6A354
:10028E00F012069C743CF00514E51470020513245C
:10029E00001206A0743CF00514E5147002051390CC
:1002AE0000007443F0A37448F0A3743AF01206AF42
:1002BE00AD14AC13120A237513027514F412073B16
:1002CE0040030202097817A60D08A60E18E6940040
:1002DE00402012069C1206EA700205132400120634
:1002EE00A01206EA7002051312069A120714700283
:1002FE00051312069812071470020513E4F515F58E
:10030E001602020920A403020209AE0DAF0E7B50A5
:10031E007AC31206F150EDE4F50DF50E0516E5164D
:10032E0070020515941EE515940040D875130275DC
:10033E0014F47BFF7A0979447D047C00120A2302AF
:10034E000209C28C020424900001E064546003028E
:10035E0004247E037F20FD1206AF12065390000088
:10036E007444F0A37454F0120853900002EFF0643A
:10037E005560F4900003743CF0A3F01206AF7D05B7
:10038E008067900001E0FEB4420CD2837BFF7A09B5
:10039E0079497D048053EE6444707BC2837BFF7A7F
:1003AE0009794E8012900001E064447069D202C255
:1003BE00007BFF7A0979537D04FC802F7524FF752D
:1003CE0025097526581206AF12043660497524FFAA
:1003DE0075250975265B1206AF1204366012120BD4
:1003EE00197BFF7A09795E7D0A7C00120A2380262A
:1003FE007524FF7525097526691206AF1207D1E916
:10040E004A4B6007D202120B33800B1209F1EF4EEA
:10041E006004C202C200E4900002F00200207BFFE2
:0F042E007D047C00120A23221207D1E94A4B22D7
:040AC2007FFE7E0134
:100AC600EF7802C333CE33CED8F9FFEF1FAC0670F2
:060AD600011E4C70F62227
:040B52007F50DFFEF3
:010B5600227C
:090B4800007F017EF4DEFEDFFCFB
:010B51002281
:100A5200D2827F0A7E00120AC6C282120AC2D282E1
:100A62007F1E7E00120AC63082077F1E7E00120A97
:070A7200C6120AC2D2822263
:1009BD00E4FDFBEDC313FDD2820000C282000000F6
:1009CD00D28200000000003082034305807F237E29
:1009DD0000120AC60BBB08DBD2827F237E00120AEF
:0309ED00C6AF058D
:0109F00022E4
:020A9F00AD07A1
:100AA100E4FBC282120B52ED139282EDC313FD12CD
:100AB1000B48D2820BBB08EAD2827F417E00020A38
:010AC100C66E
:10085300E4FAFFF521F522120A527FCC120A9F7F98
:1008630044120A9F120AC2120A527FCC120A9F7FB5
:10087300BE120A9F1209BDAA071209BD7521008F76
:1008830022E522752200F521AF02EF4222E5215431
:1008930007FCAD22E4120548E4FBFA7980783D12A7
:1008A300043D120581E52154F86009C3E49FFFE488
:0408B3009EFE800025
:0108B700221E
:10043D00EC4D6011E8497017ED33EC3304600DE4B9
:10044D00FCFFFEFD22E933E8330470F80205ED12DE
:10045D0005B858046009E4CC2481500628500902DF
:10046D0005F72840030205F4C0E0EB4A7044B9805B
:10047D0006D0E0FB0205E3EF4E701CBD8008EBFFDC
:10048D00EAFEE9FD80EBE98DF0A4FEE5F00205261C
:10049D00E9CDF9EAFEEBFFEF89F0A4FCE5F0CE899A
:1004AD00F0A42EFFE435F0CD89F0A42DFEE435F057
:1004BD008067EF4E7005BD80D780C3EF8BF0A4AC85
:1004CD00F0EE8BF0A42CFCE435F0F8EF8AF0A42CC0
:1004DD00E5F038FCE433CB8DF0A42CFCE5F03BF8D3
:1004ED00EE8AF0A42CFCE5F038F8E433CF89F0A4C3
:1004FD002CFCE5F038CF3400CE89F0A42FFFE5F0C9
:10050D003EFEE433C98DF0A42EFEE5F039CD8AF020
:10051D00A42FFFE5F03EFEE43DFD33D0E0FB500798
:10052D000BBB000F0205F7EC2CFCEF33FFEE33FE97
:06053D00ED33FD0205CFC5
:1005430075F020800E75F010800575F0087D007E33
:10055300007F003392D530D50312062FEC334010C1
:10056300EF33FFEE33FEED33FDEC33FCD5F0ED223C
:0E057300E5F0247EA2D513CC92E7CDCEFF2278
:10058100EDD2E7CD33EC3392D524814006E4FFFE72
:10059100FDFC22FCE4CFCECDCC24E0501174FF80D1
:1005A100EDC3CC13CCCD13CDCE13CECF13CF04706E
:0705B100F030D5DE02062F39
:1005B800E9D2E7C933E833F892D5EDD2E7CD33EC89
:0705C80033FC5002B2D52202
:1005CF00EC30E7100FBF000C0EBE00080DBD00048D
:1005DF000BEB6014A2D5EB13FCED92E7FD2274FF39
:1005EF00FCFDFEFF22E480F8A2D574FF13FC7D8092
:0305FF00E480EFA6
:1007510002000EE493A3F8E493A34003F68001F2B0
:1007610008DFF48029E493A3F85407240CC8C333A9
:10077100C4540F4420C8834004F456800146F6DF78
:10078100E4800B0102040810204080900A79E47E85
:10079100019360BCA3FF543F30E509541FFEE4936D
:1007A100A360010ECF54C025E060A840B8E493A334
:1007B100FAE493A3F8E493A3C8C582C8CAC583CA5F
:1007C100F0A3C8C582C8CAC583CADFE9DEE780BE17
:010A9E000057
:10060200BB010CE58229F582E5833AF583E02250AD
:1006120006E92582F8E622BBFE06E92582F8E222F7
:0D062200E58229F582E5833AF583E4932211
:0E062F00C3E49FFFE49EFEE49DFDE49CFC22DC
:10063D00EB9FF5F0EA9E42F0E99D42F0EC6480C834
:06064D0064809845F022D4
:1007D1008B218A228923AB24AA25A92612067F60B0
:1007E10063AB21AA22A92312067F605F8524278596
:1007F10025288526298B2A8A2B892CAB27AA28A96B
:100801002912067FFF6023AB2AAA2BA92C12067F8F
:100811006F7017042529F529E43528F52874012579
:100821002CF52CE4352BF52B80D1AB27AA28A9294F
:1008310012067F7002800D74012523F523E4352211
:10084100F522809DAB21AA22A923227B007A00797F
:02085100002283
:10065300EF4E6012EF60010EEDBB010B89828A83BE
:10066300F0A3DFFCDEFA2289F05007F709DFFCA9CB
:0C067300F022BBFEFCF309DFFCA9F02222
:10067F00BB010689828A83E0225002E722BBFE0279
:09068F00E32289828A83E49322AC
:00000001FF
