:03000000020912E0
:0C091200787FE4F6D8FD75812C020959AD
:100A20002B2B2B002B6F6B0041542B454E544D0D3F
:100A30000A0041542B574D4F44450D0A0041542B99
:100A40004E4D41430D0A0046483C3C0046573C3C55
:100A50000046533C3C0043413C3C0043433C3C008B
:100A600044533C3C004C423C3C004C443C3C002B3E
:100A70006F0041500041542B57414B45590D0A001E
:100A80004F50454E004D414300444D3A003C3C0020
:100B5000C102C100C183C101020B000002090000F3
:100B6000020D0000020F0000010800021100000247
:100B700017000002190000021500000213000060B7
:100B80002003200000000000000000000000000022
:100B90000000000000000000000000000000000055
:030BA00000000052
:10086500781CE6FF74002518F58274003517F583AA
:10087500227D007E037F207B017A007900227402AD
:100885002518F518E43517F517FC74002518F582B9
:1008950074003CF583E0781BF60518E518229000F6
:1008A50003E0781BF6A3E008F618E6F51908E6F567
:1008B5001A22E4F00518E51822E4FCFDF9F8C30254
:1008C500080A74002514F58274003513F583221285
:1008D5000AF57524FF75250A75262422EFF00518FB
:1008E500E51822C3E512781C96E511189622E0FF5B
:1008F500C3E5129FE511940022C3E518951AE51783
:0D090500951922C3E51894F4E51794022219
:100AF500E4F519F51AF513F514AE19AF1AE4FCFD72
:100B05007B407A9CF9F8D312080A403C30982F12A2
:100B150008C7E599F01208C7E0B43C1174FF251425
:100B2500F58274FF3513F583E0643C601BC29805BC
:100B350014E51470020513E4F519F51A80BB051ABE
:0B0B4500E51A70B5051980B1C29822B6
:0A0D6900C2998F993099FDC29922BA
:0A0C59008B218A2289238C248D252B
:100C6300E4FDFCC3ED9525EC95245018AB21AA2295
:100C7300A9238D828C831207CFFF120D690DBD004E
:040C8300010C80DF01
:010C8700224A
:100D1400538E7F5389F0438902758AE8758CE8C243
:080D24008DC28CD2A9D2AF22CE
:03000B00020D578C
:100D5700C0E00512E51270020511300202B2A5D0FB
:020D6700E03278
:100D4400438780759850438E04759CF4438E014309
:030D54008E1022DC
:070003004391105392EF221C
:0C000E007F017ED87D23DDFEDEFCDFFAE2
:01001A0022C3
:100D2C00538EBF53890F438910E4F58B758DDCC24C
:080D3C008FD28ED2ABD2AF22A0
:03001B00020C884C
:100C8800C0E0E50A45096015050AE50A700205098C
:100C9800643245097007B2B6F509750A01758B000B
:080CA800758DDCD28ED0E03224
:100BA4007BFF7A0A79207D037C00120C59120876A7
:100BB400120820120AF5900000E064617026FD120C
:100BC40008781208207F61120D691208D412087C7B
:100BD40012099EE94A4B600CD200120876120820D2
:0F0BE400E4FEFF221208761208207E007F012215
:100C27007BFF7A0A79287D097C00120C591208D4B7
:100C370012087C12099EE94A4B600CC20012087622
:100C4700120820E4FEFF221208761208207E007F99
:020C5700012278
:10001E00C284D2B6C283120D44120D14120D2C12CC
:10002E000003120CB0300319C28E200003120BA471
:10003E0030000C12000E7A0A79321204FBC203D27F
:10004E008EE50A4509701EA29492B6300117C28E33
:10005E00200003120BA430000C12000E7A0A793D18
:10006E007D0912050C209447C28EA29492B620945C
:10007E0022050EE50E7002050DAE0DFF7BFF7AFF19
:10008E001208BE70E9F50DF50E0510E51070DF05CE
:10009E000F80DBC3E5109405E50F9400400FC200FE
:1000AE00C201D203E4F50DF50EF50FF510D28E2038
:1000BE0098030204E9120AF5900002E0643A600324
:1000CE00020409C28E900000E024BD700302022ECD
:1000DE0014700302038A24F870030203DB24066003
:1000EE0003020404C2B6900001E0644860030201FA
:1000FE008AF5177518041208A3D28C1208FE506EDA
:10010E00E4F511F512D2020518E518700205172450
:10011E000012086DE0FF701112088370020517249B
:10012E000012086DE008F68007E4781BF608A607B3
:10013E001208E840FBE4F511F512C202D2A505182B
:10014E00E51870020517240012086DE0FF701112F9
:10015E00088370020517240012086DE008F6800768
:10016E00E4781BF608A6071208E8508F80F9C28CB7
:10017E007A0A79471204F1D2B6020404900001E023
:10018E0064576003020217F515F516D28CE4F511CB
:10019E00F512D284F517751804C3E512941CE511F7
:1001AE00940040F5E4F511F512C2841208A3C3E5DC
:1001BE00129428E511940340F51208FE5030E4F530
:1001CE0011F512D2840518E5187002051712086988
:1001DE001208F340F8E4F511F512C2840518E5187B
:1001EE00700205171208691208F350CD80F6051635
:1001FE00E51670020515640645157091C28CC28411
:10020E007BFF7A0A794C0203D1900001E0645360BF
:10021E00030204047BFF7A0A79517D04FC02040177
:10022E007A0A79561204F1751700751805E4F51956
:10023E00F51AD28C12090840030203857511007558
:10024E00120130A4FDD3E5129405E511940050037C
:10025E0002034B781BA61108A61275110075120128
:10026E0018E6D3940040201208691208B7700205F0
:10027E0017240012086D1208B770020517120867CE
:10028E001208E1700205171208651208E1700205E6
:10029E001730A462D3E5129470E511941740F21250
:1002AE0008691208B770020517781BA61708A6185A
:1002BE0018E6900003F008E6A3F0120869743CF00B
:1002CE000518E51870020517240012086D743CF02D
:1002DE000518E518700205179000007443F0A3741A
:1002EE0048F0A3743AF012087CAD18AC17120C59F2
:1002FE007517027518F41209084003020242781BA2
:10030E00A61108A61218E6940040201208691208D9
:10031E00B770020517240012086D1208B770020597
:10032E00171208671208E170020517120865120805
:10033E00E170020517E4F519F51A02024220A40332
:10034E00020242AE11AF127B507AC31208BE50EDBC
:10035E00E4F511F512051AE51A70020519941EE559
:10036E0019940040D87517027518F47A0A795B7DD6
:10037E000412050C020242C28C020404900001E039
:10038E0024BC603524F7604124F9706A1208761295
:10039E0008209000007444F0A37454F0120A909058
:1003AE000002EFF0645560F4900003743CF0A3F08B
:1003BE0012087C7D057C00803AD203C2007BFF7A56
:1003CE000A79607D047C00802AD201802990000188
:1003DE00E0FEB4420ED2837BFF7A0A79657D047CFF
:1003EE00008010EEB4440FC2837BFF7A0A796A7DD7
:1003FE00047C00120C59D28E0204E97524FF752577
:10040E000A75266F12087C12050570030204E97541
:10041E0024FF75250A75267212087C120505600DDB
:10042E0012000E7A0A79751204FB0204E97524FF94
:10043E0075250A75268012087C12099EE94A4B60C2
:10044E001BC203750900750A01D28E120C27EF4EDE
:10045E0060030204E9C203C2000204E97524FF75B9
:10046E00250A75268512087C12099EE94A4B605CA6
:10047E007E007F207D007B017A0379201208207890
:10048E00207C037D017B017A0079097E007F1A12A0
:10049E0007A9120C27EF4E702AC201C2007BFF7A09
:1004AE000A79897D03FC120C597B017A0379207D30
:1004BE001A7C00120C597BFF7A0A798D7D027C0022
:1004CE00120C59E4F50BF50CD28E800F120C27EF9F
:1004DE004E7008C203C200F509F50AE4900002F05E
:1004EE000200337BFF7D047C00120C59227BFF7DC2
:1004FE000A7C00120C592212099EE94A4B227BFFFC
:06050E007C00120C5922D2
:040CFA007FFE7E01FA
:100CFE00EF7802C333CE33CED8F9FFEF1FAC0670B8
:060D0E00011E4C70F622EC
:040D7D007F50DFFEC6
:010D8100224F
:090D7300007F017EF4DEFEDFFCCE
:010D7C002254
:100CB000D2827F0A7E00120CFEC282120CFAD2820D
:100CC0007F1E7E00120CFE3082077F1E7E00120CFB
:070CD000FE120CFAD2822291
:100BF300E4FDFBEDC313FDD2820000C282000000BE
:100C0300D28200000000003082034305807F237EF0
:100C130000120CFE0BBB08DBD2827F237E00120C7A
:030C2300FEAF051C
:010C260022AB
:020CD700AD0767
:100CD900E4FBC282120D7DED139282EDC313FD1266
:100CE9000D73D2820BBB08EAD2827F417E00020CCF
:010CF900FEFC
:100A9000E4FAFFF521F522120CB07FCC120CD77FBF
:100AA00044120CD7120CFA120CB07FCC120CD77F68
:100AB000BE120CD7120BF3AA07120BF37521008F8D
:100AC00022E522752200F521AF02EF4222E52154F2
:100AD00007FCAD22E412061FE4FBFA7980783D1290
:100AE0000514120658E52154F86009C3E49FFFE499
:040AF0009EFE8000E6
:010AF40022DF
:10051400EC4D6011E8497017ED33EC3304600DE4E1
:10052400FCFFFEFD22E933E8330470F80206C4122E
:10053400068F58046009E4CC24815006285009022F
:1005440006CE2840030206CBC0E0EB4A7044B980D3
:1005540006D0E0FB0206BAEF4E701CBD8008EBFF2C
:10056400EAFEE9FD80EBE98DF0A4FEE5F00205FD6D
:10057400E9CDF9EAFEEBFFEF89F0A4FCE5F0CE89C2
:10058400F0A42EFFE435F0CD89F0A42DFEE435F07F
:100594008067EF4E7005BD80D780C3EF8BF0A4ACAD
:1005A400F0EE8BF0A42CFCE435F0F8EF8AF0A42CE8
:1005B400E5F038FCE433CB8DF0A42CFCE5F03BF8FB
:1005C400EE8AF0A42CFCE5F038F8E433CF89F0A4EB
:1005D4002CFCE5F038CF3400CE89F0A42FFFE5F0F1
:1005E4003EFEE433C98DF0A42EFEE5F039CD8AF049
:1005F400A42FFFE5F03EFEE43DFD33D0E0FB5007C1
:100604000BBB000F0206CEEC2CFCEF33FFEE33FEE7
:06061400ED33FD0206A615
:10061A0075F020800E75F010800575F0087D007E5B
:10062A00007F003392D530D5031207FCEC3340101B
:10063A00EF33FFEE33FEED33FDEC33FCD5F0ED2264
:0E064A00E5F0247EA2D513CC92E7CDCEFF22A0
:10065800EDD2E7CD33EC3392D524814006E4FFFE9A
:10066800FDFC22FCE4CFCECDCC24E0501174FF80F9
:10067800EDC3CC13CCCD13CDCE13CECF13CF047096
:07068800F030D5DE0207FC93
:10068F00E9D2E7C933E833F892D5EDD2E7CD33ECB1
:07069F0033FC5002B2D5222A
:1006A600EC30E7100FBF000C0EBE00080DBD0004B5
:1006B6000BEB6014A2D5EB13FCED92E7FD2274FF61
:1006C600FCFDFEFF22E480F8A2D574FF13FC7D80BA
:0306D600E480EFCE
:10091E0002001EE493A3F8E493A34003F68001F2D1
:10092E0008DFF48029E493A3F85407240CC8C333DA
:10093E00C4540F4420C8834004F456800146F6DFA9
:10094E00E4800B0102040810204080900B50E47EDE
:10095E00019360BCA3FF543F30E509541FFEE4939E
:10096E00A360010ECF54C025E060A840B8E493A365
:10097E00FAE493A3F8E493A3C8C582C8CAC583CA90
:10098E00F0A3C8C582C8CAC583CADFE9DEE780BE48
:010BA3000051
:1006D900E709F608DFFA8046E709F208DFFA803E03
:1006E90088828C83E709F0A3DFFA8032E309F608F0
:1006F900DFFA8078E309F208DFFA807088828C8358
:10070900E309F0A3DFFA806489828A83E0A3F6080B
:10071900DFFA805889828A83E0A3F208DFFA804CE5
:1007290080D280FA80C680D4806980F280338010BC
:1007390080A680EA809A80A880DA80E280CA803325
:1007490089828A83ECFAE493A3C8C582C8CCC5839D
:10075900CCF0A3C8C582C8CCC583CCDFE9DEE7806D
:100769000D89828A83E493A3F608DFF9ECFAA9F0EC
:10077900EDFB2289828A83ECFAE0A3C8C582C8CC42
:10078900C583CCF0A3C8C582C8CCC583CCDFEADE5B
:10079900E880DB89828A83E493A3F208DFF980CCBD
:1007A90088F0EF60010E4E60C388F0ED2402B404B6
:1007B9000050B9F582EB2402B4040050AF2323455D
:0607C90082239007297352
:1007CF00BB010CE58229F582E5833AF583E02250DF
:1007DF0006E92582F8E622BBFE06E92582F8E22229
:0D07EF00E58229F582E5833AF583E4932243
:0E07FC00C3E49FFFE49EFEE49DFDE49CFC220E
:10080A00EB9FF5F0EA9E42F0E99D42F0EC6480C865
:06081A0064809845F02205
:10099E008B218A228923AB24AA25A92612084C6012
:1009AE0063AB21AA22A92312084C605F85242785F8
:1009BE0025288526298B2A8A2B892CAB27AA28A99C
:1009CE002912084CFF6023AB2AAA2BA92C12084C23
:1009DE006F7017042529F529E43528F528740125AB
:1009EE002CF52CE4352BF52B80D1AB27AA28A92981
:1009FE0012084C7002800D74012523F523E4352274
:100A0E00F522809DAB21AA22A923227B007A0079B0
:020A1E000022B4
:10082000EF4E6012EF60010EEDBB010B89828A83EF
:10083000F0A3DFFCDEFA2289F05007F709DFFCA9FC
:0C084000F022BBFEFCF309DFFCA9F02253
:10084C00BB010689828A83E0225002E722BBFE02AA
:09085C00E32289828A83E49322DD
:00000001FF
