:0300000002075A9A
:0C075A00787FE4F6D8FD75812C0207A121
:100928002B2B2B002B6F6B0041542B454E544D0D38
:100938000A0041542B574D4F44450D0A0046483C88
:100948003C0046573C3C0046533C3C0043413C3C41
:100958000043433C3C004C423C3C004C443C3C0083
:1009680053443C3C002B6F0041500041542B5741ED
:0B0978004B45590D0A004F50454E0042
:100A6700C102C100C183C10102090000020B0000DD
:100A7700010800020D000002130000021500000229
:070A8700110000020F000046
:1006AD007818E6FF74002514F58274003513F58370
:1006BD00227D007E037F207B017A00790022740267
:1006CD002514F514E43513F513FC74002514F58287
:1006DD0074003CF583E07817F60514E514229000BC
:1006ED0003E07817F6A3E008F618E6F51508E6F529
:1006FD001622E4F00514E51422E4FCFDF9F8C3021A
:10070D00065274002510F5827400350FF583221200
:10071D0008CD7524FF75250975262C22EFF00514DB
:10072D00E51422C3E50E781896E50D189622E0FF24
:10073D00C3E50E9FE50D940022C3E5149516E51350
:0D074D00951522C3E51494F4E513940222DF
:1008CD00E4F515F516F50FF510AE15AF16E4FCFDB4
:1008DD007B407A9CF9F8D3120652403C30982F1287
:1008ED00070FE599F012070FE0B43C1174FF2510C6
:1008FD00F58274FF350FF583E0643C601BC29805EB
:10090D0010E5107002050FE4F515F51680BB051600
:0B091D00E51670B5051580B1C29822E8
:0A0B5A00C2998F993099FDC29922CB
:0A0A38008B218A2289238C248D254E
:100A4200E4FDFCC3ED9525EC95245018AB21AA22B8
:100A5200A9238D828C83120617FF120B5A0DBD003B
:040A6200010C80DF24
:010A6600226D
:100AF300538E7F5389F0438902758AE8758CE8C267
:080B03008DC28CD2A9D2AF22F1
:03000B00020B1EC7
:100B1E00C0E0050EE50E7002050D300202B2A5D042
:020B2E00E032B3
:100B0B00438780759850438E04759CF4438E014344
:030B1B008E102217
:070003004391105392EF221C
:0C0B40007F017ED87D23DDFEDEFCDFFAA5
:010B4C002286
:0C0B4D007F097E687D8BDDFEDEFCDFFA98
:010B59002279
:100B3000B2B6120B4D120B4DB2B6120B4D020B4D4D
:100983007BFF7A0979287D037C00120A381206BEA0
:100993001206681208CD900000E064617026FD1213
:1009A30006C01206687F61120B5A12071C1206C496
:1009B3001207E6E94A4B600CD2001206BE12066823
:0F09C300E4FEFF221206BE1206687E007F0122AC
:100A06007BFF7A0979307D097C00120A3812071CAF
:100A16001206C41207E6E94A4B600CC2001206BE73
:100A2600120668E4FEFF221206BE1206687E007FEA
:020A360001229B
:10000E00C284D2B6C283120B0B120AF31200031271
:10001E000A8F30031B200003120983300012120BCB
:10002E00407BFF7A09793A7D0A7C00120A38C203B6
:10003E00A29492B620943D209422050AE50A7002FD
:10004E000509AE09FF7BFF7AFF12070670E9F50975
:10005E00F50A050CE50C70DF050B80DBC3E50C948F
:10006E0005E50B9400400DC200D203E4F509F50A34
:10007E00F50BF50C300103120B30209803020439F6
:10008E001208CD900002E0643A60030203D39000A0
:10009E0000E024BD70030201FB14700302035B2415
:1000AE00F8700302039624F970030203BC240D605A
:1000BE0003020439C2B6900001E0644860030201F5
:1000CE005AF5137514041206EBD28C120746506EB5
:1000DE00E4F50DF50ED2020514E514700205132495
:1000EE00001206B5E0FF70111206CB700205132444
:1000FE00001206B5E008F68007E47817F608A607A2
:10010E0012073040FBE4F50DF50EC202D2A5051420
:10011E00E5147002051324001206B5E0FF701112EB
:10012E0006CB7002051324001206B5E008F6800710
:10013E00E47817F608A607120730508F80F9C28CA4
:10014E007A097945120441D2B6020439900001E0D1
:10015E00645760030201E7F511F512D28CE4F50D38
:10016E00F50ED284F513751404C3E50E941CE50D3B
:10017E00940040F5E4F50DF50EC2841206EBC3E5CE
:10018E000E9428E50D940340F51207465030E4F521
:10019E000DF50ED2840514E514700205131206B186
:1001AE0012073B40F8E4F50DF50EC2840514E51474
:1001BE00700205131206B112073B50CD80F60512E0
:1001CE00E51270020511640645117091C28CC2844D
:1001DE007BFF7A09794A0203A6900001E06453601E
:1001EE00030204397BFF7A09794F0203CE7A09792B
:1001FE0054120441751300751405E4F515F516D265
:10020E008C1207504003020356750D00750E013017
:10021E00A4FDD3E50E9405E50D94005003020318DA
:10022E007817A60D08A60E750D00750E0118E6D3EB
:10023E00940040201206B11206FF7002051324002E
:10024E001206B51206FF700205131206AF12072929
:10025E00700205131206AD1207297002051330A4A1
:10026E0062D3E50E9470E50D941740F21206B112AA
:10027E0006FF700205137817A61308A61418E69049
:10028E000003F008E6A3F01206B1743CF00514E585
:10029E00147002051324001206B5743CF00514E523
:1002AE0014700205139000007443F0A37448F0A379
:1002BE00743AF01206C4AD14AC13120A3875130258
:1002CE007514F4120750400302020F7817A60D089A
:1002DE00A60E18E6940040201206B11206FF700218
:1002EE00051324001206B51206FF7002051312063E
:1002FE00AF120729700205131206AD1207297002FC
:10030E000513E4F515F51602020F20A40302020FE1
:10031E00AE0DAF0E7B507AC312070650EDE4F50D0D
:10032E00F50E0516E51670020515941EE5159400DA
:10033E0040D87513027514F47BFF7A0979597D0440
:10034E007C00120A3802020FC28C0204399000019E
:10035E00E0645460030204397E037F20FD1206C45C
:10036E001206689000007444F0A37454F0120868EA
:10037E00900002EFF0645560F4900003743CF0A31B
:10038E00F01206C47D05806A900001E0FEB4420CB6
:10039E00D2837BFF7A09795E7D048056EE644460D9
:1003AE0003020439C2837BFF7A09796380129000BD
:1003BE0001E064447075D203C2007BFF7A0979684C
:1003CE007D04FC802F7524FF75250975266D120698
:1003DE00C412044B60557524FF75250975267012DD
:1003EE0006C412044B6012120B407BFF7A0979731C
:1003FE007D0A7C00120A3880327524FF7525097536
:10040E00267E1206C41207E6E94A4B6011C203D2D9
:10041E0001120A06EF4E6013C203C200800D120ACB
:10042E0006EF4E6006C203C200C201E4900002F065
:10043E000200207BFF7D047C00120A38221207E6A0
:04044E00E94A4B220A
:040AD9007FFE7E011D
:100ADD00EF7802C333CE33CED8F9FFEF1FAC0670DB
:060AED00011E4C70F62210
:040B6E007F50DFFED7
:010B72002260
:090B6400007F017EF4DEFEDFFCDF
:010B6D002265
:100A8F00D2827F0A7E00120ADDC282120AD9D28276
:100A9F007F1E7E00120ADD3082077F1E7E00120A43
:070AAF00DD120AD9D28222F8
:1009D200E4FDFBEDC313FDD2820000C282000000E1
:1009E200D28200000000003082034305807F237E14
:1009F20000120ADD0BBB08DBD2827F237E00120AC3
:030A0200DDAF0560
:010A050022CE
:020AB600AD078A
:100AB800E4FBC282120B6EED139282EDC313FD129A
:100AC8000B64D2820BBB08EAD2827F417E00020A05
:010AD800DD40
:10086800E4FAFFF521F522120A8F7FCC120AB67F2F
:1008780044120AB6120AD9120A8F7FCC120AB67F1E
:10088800BE120AB61209D2AA071209D27521008F20
:1008980022E522752200F521AF02EF4222E521541C
:1008A80007FCAD22E412055DE4FBFA7980783D127D
:1008B8000452120596E52154F86009C3E49FFFE449
:0408C8009EFE800010
:0108CC002209
:10045200EC4D6011E8497017ED33EC3304600DE4A4
:10046200FCFFFEFD22E933E8330470F802060212B3
:1004720005CD58046009E4CC2481500628500902B5
:10048200060C284003020609C0E0EB4A7044B9801A
:1004920006D0E0FB0205F8EF4E701CBD8008EBFFB2
:1004A200EAFEE9FD80EBE98DF0A4FEE5F002053BF2
:1004B200E9CDF9EAFEEBFFEF89F0A4FCE5F0CE8985
:1004C200F0A42EFFE435F0CD89F0A42DFEE435F042
:1004D2008067EF4E7005BD80D780C3EF8BF0A4AC70
:1004E200F0EE8BF0A42CFCE435F0F8EF8AF0A42CAB
:1004F200E5F038FCE433CB8DF0A42CFCE5F03BF8BE
:10050200EE8AF0A42CFCE5F038F8E433CF89F0A4AD
:100512002CFCE5F038CF3400CE89F0A42FFFE5F0B3
:100522003EFEE433C98DF0A42EFEE5F039CD8AF00B
:10053200A42FFFE5F03EFEE43DFD33D0E0FB500783
:100542000BBB000F02060CEC2CFCEF33FFEE33FE6C
:06055200ED33FD0205E49B
:1005580075F020800E75F010800575F0087D007E1E
:10056800007F003392D530D503120644EC33401097
:10057800EF33FFEE33FEED33FDEC33FCD5F0ED2227
:0E058800E5F0247EA2D513CC92E7CDCEFF2263
:10059600EDD2E7CD33EC3392D524814006E4FFFE5D
:1005A600FDFC22FCE4CFCECDCC24E0501174FF80BC
:1005B600EDC3CC13CCCD13CDCE13CECF13CF047059
:0705C600F030D5DE0206440F
:1005CD00E9D2E7C933E833F892D5EDD2E7CD33EC74
:0705DD0033FC5002B2D522ED
:1005E400EC30E7100FBF000C0EBE00080DBD000478
:1005F4000BEB6014A2D5EB13FCED92E7FD2274FF24
:10060400FCFDFEFF22E480F8A2D574FF13FC7D807C
:03061400E480EF90
:1007660002000EE493A3F8E493A34003F68001F29B
:1007760008DFF48029E493A3F85407240CC8C33394
:10078600C4540F4420C8834004F456800146F6DF63
:10079600E4800B0102040810204080900A67E47E82
:1007A600019360BCA3FF543F30E509541FFEE49358
:1007B600A360010ECF54C025E060A840B8E493A31F
:1007C600FAE493A3F8E493A3C8C582C8CAC583CA4A
:1007D600F0A3C8C582C8CAC583CADFE9DEE780BE02
:010A8E000067
:10061700BB010CE58229F582E5833AF583E0225098
:1006270006E92582F8E622BBFE06E92582F8E222E2
:0D063700E58229F582E5833AF583E49322FC
:0E064400C3E49FFFE49EFEE49DFDE49CFC22C7
:10065200EB9FF5F0EA9E42F0E99D42F0EC6480C81F
:0606620064809845F022BF
:1007E6008B218A228923AB24AA25A9261206946086
:1007F60063AB21AA22A923120694605F852427856C
:1008060025288526298B2A8A2B892CAB27AA28A955
:1008160029120694FF6023AB2AAA2BA92C12069450
:100826006F7017042529F529E43528F52874012564
:100836002CF52CE4352BF52B80D1AB27AA28A9293A
:100846001206947002800D74012523F523E43522E7
:10085600F522809DAB21AA22A923227B007A00796A
:0208660000226E
:10066800EF4E6012EF60010EEDBB010B89828A83A9
:10067800F0A3DFFCDEFA2289F05007F709DFFCA9B6
:0C068800F022BBFEFCF309DFFCA9F0220D
:10069400BB010689828A83E0225002E722BBFE0264
:0906A400E32289828A83E4932297
:00000001FF
