:0300000002077282
:0C077200787FE4F6D8FD75812C0207B9F1
:100940002B2B2B002B6F6B0041542B454E544D0D20
:100950000A0041542B574D4F44450D0A0046483C70
:100960003C0046573C3C0046533C3C0043413C3C29
:100970000043433C3C0044533C3C004C423C3C0064
:100980004C443C3C002B6F0041500041542B5741DC
:0B0990004B45590D0A004F50454E002A
:100A7F00C101C100C18202090000020B0000020D7A
:100A8F000000010800020F0000021500000217000D
:090A9F0000021300000211000026
:1006C500781AE6FF74002516F58274003515F58352
:1006D500227D007E037F207B017A0079002274024F
:1006E5002516F516E43515F515FC74002516F58265
:1006F50074003CF583E07819F60516E5162290009E
:1007050003E07819F6A3E008F618E6F51708E6F50C
:100715001822E4F00516E51622E4FCFDF9F8C302FB
:10072500066A74002512F58274003511F5832212CC
:1007350008E57524FF75250975264422EFF0051691
:10074500E51622C3E510781A96E50F189622E0FF04
:10075500C3E5109FE50F940022C3E5169518E5152E
:0D076500951722C3E51694F4E515940222C1
:1008E500E4F517F518F511F512AE17AF18E4FCFD90
:1008F5007B407A9CF9F8D312066A403C30982F1257
:100905000727E599F0120727E0B43C1174FF25127B
:10091500F58274FF3511F583E0643C601BC29805D0
:1009250012E51270020511E4F517F51880BB0518DC
:0B093500E51870B5051780B1C29822CC
:0A0B8A00C2998F993099FDC299229B
:0A0A50008B218A2289238C248D2536
:100A5A00E4FDFCC3ED9525EC95245018AB21AA22A0
:100A6A00A9238D828C8312062FFF120B8A0DBD00DB
:040A7A00010C80DF0C
:010A7E002255
:100B3500538E7F5389F0438902758AE8758CE8C224
:080B45008DC28CD2A9D2AF22AF
:03000B00020B786D
:100B7800C0E00510E5107002050F300102B2A5D0E3
:020B8800E03259
:100B6500438780759850438E04759CF4438E0143EA
:030B75008E1022BD
:070003004391105392EF221C
:0C000E007F017ED87D23DDFEDEFCDFFAE2
:01001A0022C3
:100B4D00538EBF53890F438910E4F58B758DDCC22D
:080B5D008FD28ED2ABD2AF2281
:03001B00020AA92D
:100AA900C0E0E50A45096015050AE50A700205096D
:100AB900643245097007B2B6F509750A01758B00EC
:080AC900758DDCD28ED0E03205
:10099B007BFF7A0979407D037C00120A501206D640
:1009AB001206801208E5900000E064617026FD12CB
:1009BB0006D81206807F61120B8A1207341206DCEE
:1009CB001207FEE94A4B600CD2001206D6120680C3
:0F09DB00E4FEFF221206D61206807E007F012264
:100A1E007BFF7A0979487D097C00120A501207344F
:100A2E001206DC1207FEE94A4B600CC2001206D613
:100A3E00120680E4FEFF221206D61206807E007F8A
:020A4E00012283
:10001E00C284D2B6C283120B65120B35120B4D126F
:10002E000003120AD130021B20000312099B30007C
:10003E001212000E7BFF7A0979527D0A7C00120A99
:10004E0050C202E50A45097004A29492B620944566
:10005E00C28EA29492B6209422050CE50C70020575
:10006E000BAE0BFF7BFF7AFF12071E70E9F50BF547
:10007E000C050EE50E70DF050D80DBC3E50E940555
:10008E00E50D9400400DC200D202E4F50BF50CF51F
:10009E000DF50ED28E2098030204511208E5900041
:1000AE0002E0643A60030203E4900000E024BD70B5
:1000BE000302020F14700302036F24F8700302038D
:1000CE00BE24066003020451C2B6900001E06448EB
:1000DE00600302016EF515751604120703D28C1219
:1000EE00075E506EE4F50FF510D2010516E5167099
:1000FE0002051524001206CDE0FF70111206E37002
:10010E0002051524001206CDE008F68007E47819E2
:10011E00F608A60712074840FBE4F50FF510C201DA
:10012E00D2A50516E5167002051524001206CDE0BF
:10013E00FF70111206E37002051524001206CDE0C1
:10014E0008F68007E47819F608A607120748508FBC
:10015E0080F9C28C7A09795D120459D2B602045123
:10016E00900001E0645760030201FBF513F514D211
:10017E008CE4F50FF510D284F515751604C3E51051
:10018E00941CE50F940040F5E4F50FF510C28412AF
:10019E000703C3E5109428E50F940340F512075E9C
:1001AE005030E4F50FF510D2840516E516700205F1
:1001BE00151206C912075340F8E4F50FF510C28464
:1001CE000516E516700205151206C912075350CD15
:1001DE0080F60514E514700205136406451370913C
:1001EE00C28CC2847BFF7A0979620203CE90000131
:1001FE00E0645360030204517BFF7A0979670203BE
:10020E00DF7A09796C120459751500751605E4F537
:10021E0017F518D28C120768400302036A750F0097
:10022E0075100130A4FDD3E5109405E50F94005030
:10023E000302032C7819A60F08A610750F0075106F
:10024E000118E6D3940040201206C9120717700257
:10025E00051524001206CD12071770020515120699
:10026E00C7120741700205151206C512074170022A
:10027E00051530A462D3E5109470E50F941740F283
:10028E001206C9120717700205157819A61508A6C9
:10029E001618E6900003F008E6A3F01206C9743CA7
:1002AE00F00516E5167002051524001206CD743CF5
:1002BE00F00516E516700205159000007443F0A3C4
:1002CE007448F0A3743AF01206DCAD16AC15120A9F
:1002DE00507515027516F412076840030202237852
:1002EE0019A60F08A61018E6940040201206C9128F
:1002FE0007177002051524001206CD12071770029B
:10030E0005151206C7120741700205151206C51211
:10031E00074170020515E4F517F51802022320A413
:10032E0003020223AE0FAF107B507AC312071E508A
:10033E00EDE4F50FF5100518E51870020517941E7B
:10034E00E517940040D87515027516F47BFF7A09EF
:10035E0079717D047C00120A50020223C28C0204C1
:10036E0051900001E0645470307E037F20FD120630
:10037E00DC1206809000007444F0A37454F012084E
:10038E0080900002EFF0645560F4900003743CF02E
:10039E00A3F01206DC7D05806A900001E0645360D4
:1003AE0003020451D202C2007BFF7A0979768021C2
:1003BE00900001E0FEB4420CD2837BFF7A09797B78
:1003CE007D04803FEE6444707AC2837BFF7A0979A4
:1003DE00807D04FC802F7524FF75250975268512F6
:1003EE0006DC120463605C7524FF7525097526888A
:1003FE001206DC120463601212000E7BFF7A09797A
:10040E008B7D0A7C00120A5080397524FF752509F0
:10041E007526961206DC1207FEE94A4B6017C202D9
:10042E00750900750A01D28E120A1EEF4E6014C2B3
:10043E0002C200800E120A1EC202C28EC200E4F573
:10044E0009F50AE4900002F00200337BFF7D047C84
:0C045E0000120A50221207FEE94A4B224D
:040B1B007FFE7E01DA
:100B1F00EF7802C333CE33CED8F9FFEF1FAC067098
:060B2F00011E4C70F622CD
:040B9E007F50DFFEA7
:010BA2002230
:090B9400007F017EF4DEFEDFFCAF
:010B9D002235
:100AD100D2827F0A7E00120B1FC282120B1BD282AE
:100AE1007F1E7E00120B1F3082077F1E7E00120BBD
:070AF1001F120B1BD2822231
:1009EA00E4FDFBEDC313FDD2820000C282000000C9
:1009FA00D28200000000003082034305807F237EFC
:100A0A0000120B1F0BBB08DBD2827F237E00120B66
:030A1A001FAF0506
:010A1D0022B6
:020AF800AD0748
:100AFA00E4FBC282120B9EED139282EDC313FD1228
:100B0A000B94D2820BBB08EAD2827F417E00020B91
:010B1A001FBB
:10088000E4FAFFF521F522120AD17FCC120AF87F93
:1008900044120AF8120B1B120AD17FCC120AF87FFD
:1008A000BE120AF81209EAAA071209EA7521008F96
:1008B00022E522752200F521AF02EF4222E5215404
:1008C00007FCAD22E4120575E4FBFA7980783D124D
:1008D000046A1205AEE52154F86009C3E49FFFE401
:0408E0009EFE8000F8
:0108E40022F1
:10046A00EC4D6011E8497017ED33EC3304600DE48C
:10047A00FCFFFEFD22E933E8330470F802061A1283
:10048A0005E558046009E4CC248150062850090285
:10049A000624284003020621C0E0EB4A7044B980D2
:1004AA0006D0E0FB020610EF4E701CBD8008EBFF81
:1004BA00EAFEE9FD80EBE98DF0A4FEE5F0020553C2
:1004CA00E9CDF9EAFEEBFFEF89F0A4FCE5F0CE896D
:1004DA00F0A42EFFE435F0CD89F0A42DFEE435F02A
:1004EA008067EF4E7005BD80D780C3EF8BF0A4AC58
:1004FA00F0EE8BF0A42CFCE435F0F8EF8AF0A42C93
:10050A00E5F038FCE433CB8DF0A42CFCE5F03BF8A5
:10051A00EE8AF0A42CFCE5F038F8E433CF89F0A495
:10052A002CFCE5F038CF3400CE89F0A42FFFE5F09B
:10053A003EFEE433C98DF0A42EFEE5F039CD8AF0F3
:10054A00A42FFFE5F03EFEE43DFD33D0E0FB50076B
:10055A000BBB000F020624EC2CFCEF33FFEE33FE3C
:06056A00ED33FD0205FC6B
:1005700075F020800E75F010800575F0087D007E06
:10058000007F003392D530D50312065CEC33401067
:10059000EF33FFEE33FEED33FDEC33FCD5F0ED220F
:0E05A000E5F0247EA2D513CC92E7CDCEFF224B
:1005AE00EDD2E7CD33EC3392D524814006E4FFFE45
:1005BE00FDFC22FCE4CFCECDCC24E0501174FF80A4
:1005CE00EDC3CC13CCCD13CDCE13CECF13CF047041
:0705DE00F030D5DE02065CDF
:1005E500E9D2E7C933E833F892D5EDD2E7CD33EC5C
:0705F50033FC5002B2D522D5
:1005FC00EC30E7100FBF000C0EBE00080DBD000460
:10060C000BEB6014A2D5EB13FCED92E7FD2274FF0B
:10061C00FCFDFEFF22E480F8A2D574FF13FC7D8064
:03062C00E480EF78
:10077E0002001EE493A3F8E493A34003F68001F273
:10078E0008DFF48029E493A3F85407240CC8C3337C
:10079E00C4540F4420C8834004F456800146F6DF4B
:1007AE00E4800B0102040810204080900A7FE47E52
:1007BE00019360BCA3FF543F30E509541FFEE49340
:1007CE00A360010ECF54C025E060A840B8E493A307
:1007DE00FAE493A3F8E493A3C8C582C8CAC583CA32
:1007EE00F0A3C8C582C8CAC583CADFE9DEE780BEEA
:010AA800004D
:10062F00BB010CE58229F582E5833AF583E0225080
:10063F0006E92582F8E622BBFE06E92582F8E222CA
:0D064F00E58229F582E5833AF583E49322E4
:0E065C00C3E49FFFE49EFEE49DFDE49CFC22AF
:10066A00EB9FF5F0EA9E42F0E99D42F0EC6480C807
:06067A0064809845F022A7
:1007FE008B218A228923AB24AA25A9261206AC6056
:10080E0063AB21AA22A9231206AC605F852427853B
:10081E0025288526298B2A8A2B892CAB27AA28A93D
:10082E00291206ACFF6023AB2AAA2BA92C1206AC08
:10083E006F7017042529F529E43528F5287401254C
:10084E002CF52CE4352BF52B80D1AB27AA28A92922
:10085E001206AC7002800D74012523F523E43522B7
:10086E00F522809DAB21AA22A923227B007A007952
:02087E00002256
:10068000EF4E6012EF60010EEDBB010B89828A8391
:10069000F0A3DFFCDEFA2289F05007F709DFFCA99E
:0C06A000F022BBFEFCF309DFFCA9F022F5
:1006AC00BB010689828A83E0225002E722BBFE024C
:0906BC00E32289828A83E493227F
:00000001FF
