:03000000020911E1
:0C091100787FE4F6D8FD75812C020958AF
:100A1F002B2B2B002B6F6B0041542B454E544D0D40
:100A2F000A0041542B574D4F44450D0A0041542B9A
:100A3F004E4D41430D0A0046483C3C0046573C3C56
:100A4F000046533C3C0043413C3C0043433C3C008C
:100A5F0044533C3C004C423C3C004C443C3C002B3F
:100A6F006F0041500041542B57414B45590D0A001F
:100A7F004F50454E004D4143002B6F6B3D00444D91
:050A8F003A003C3C00B0
:100BE900C102C100C183C101020B0000020900005A
:100BF900020D0000020F00000108000211000002AE
:100C0900170000021900000215000002130000502D
:100C190003200000000000000000000000000000A8
:020C29000000C9
:10086400781CE6FF74002518F58274003517F583AB
:10087400227D007E037F207B017A007900227402AE
:100884002518F518E43517F517FC74002518F582BA
:1008940074003CF583E0781BF60518E518229000F7
:1008A40003E0781BF6A3E008F618E6F51908E6F568
:1008B4001A22E4F00518E51822E4FCFDF9F8C30255
:1008C400080974002514F58274003513F583221287
:1008D4000AF97524FF75250A75262322EFF00518F9
:1008E400E51822C3E512781C96E511189622E0FF5C
:1008F400C3E5129FE511940022C3E518951AE51784
:0D090400951922C3E51894F4E5179402221A
:100AF900E4F519F51AF513F514AE19AF1AE4FCFD6E
:100B09007B407A9CF9F8D3120809403C30982F129F
:100B190008C6E599F01208C6E0B43C1174FF251423
:100B2900F58274FF3513F583E0643C601BC29805B8
:100B390014E51470020513E4F519F51A80BB051ABA
:0B0B4900E51A70B5051980B1C29822B2
:0A0D7A00C2998F993099FDC29922A9
:0A0C92008B218A2289238C248D25F2
:100C9C00E4FDFCC3ED9525EC95245018AB21AA225C
:100CAC00A9238D828C831207CEFF120D7A0DBD0005
:040CBC00010C80DFC8
:010CC0002211
:100D2500538E7F5389F0438902758AE8758CE8C232
:080D35008DC28CD2A9D2AF22BD
:03000B00020D687B
:100D6800C0E00512E51270020511300202B2A5D0EA
:020D7800E03267
:100D5500438780759850438E04759CF4438E0143F8
:030D65008E1022CB
:070003004391105392EF221C
:0C000E007F017ED87D23DDFEDEFCDFFAE2
:01001A0022C3
:100D3D00538EBF53890F438910E4F58B758DDCC23B
:080D4D008FD28ED2ABD2AF228F
:03001B00020BA332
:100BA300C0E0C0D0E50A45096017050AE50A7002EE
:100BB3000509643245097021B2B6F509750A018049
:100BC30018050CE50C7002050BB4600DE50BB4EAD7
:100BD30008D201750B00750C00758B00758DDCD286
:060BE3008ED0D0D0E032FC
:100B54007BFF7A0A791F7D037C00120C92120875C0
:100B640012081F120AF9900000E064617026FD1259
:100B7400087712081F7F61120D7A1208D312087BBE
:100B840012099DE94A4B600CD20012087512081F25
:0F0B9400E4FEFF2212087512081F7E007F012267
:100C60007BFF7A0A79277D097C00120C921208D347
:100C700012087B12099DE94A4B600CC200120875EC
:100C800012081FE4FEFF2212087512081F7E007F63
:020C900001223F
:10001E00C284D2B6C283120D55120D25120D3D1299
:10002E000003120CC1300319C28E200003120B54B0
:10003E0030000C12000E7A0A79311204FAC203D281
:10004E008EE50A4509701EA29492B6300117C28E33
:10005E00200003120B5430000C12000E7A0A793C69
:10006E007D0912050B209447C28EA29492B620945D
:10007E0022050EE50E7002050DAE0DFF7BFF7AFF19
:10008E001208BD70E9F50DF50E0510E51070DF05CF
:10009E000F80DBC3E5109405E50F9400400FC200FE
:1000AE00C201D203E4F50DF50EF50FF510D28E2038
:1000BE0098030204E8120AF9900002E0643A600321
:1000CE000203FFC28E900000E024BD700302022ED8
:1000DE0014700302038924F870030203D12406600E
:1000EE00030203FAC2B6900001E064486003020105
:1000FE008AF5177518041208A2D28C1208FD506EDC
:10010E00E4F511F512D2020518E518700205172450
:10011E000012086CE0FF701112088270020517249D
:10012E000012086CE008F68007E4781BF608A607B4
:10013E001208E740FBE4F511F512C202D2A505182C
:10014E00E51870020517240012086CE0FF701112FA
:10015E00088270020517240012086CE008F680076A
:10016E00E4781BF608A6071208E7508F80F9C28CB8
:10017E007A0A79461204F0D2B60203FA900001E030
:10018E0064576003020217F515F516D28CE4F511CB
:10019E00F512D284F517751804C3E512941CE511F7
:1001AE00940040F5E4F511F512C2841208A2C3E5DD
:1001BE00129428E511940340F51208FD5030E4F531
:1001CE0011F512D2840518E5187002051712086889
:1001DE001208F240F8E4F511F512C2840518E5187C
:1001EE00700205171208681208F250CD80F6051637
:1001FE00E51670020515640645157091C28CC28411
:10020E007BFF7A0A794B0203CB900001E0645360C6
:10021E00030203FA7BFF7A0A79507D04FC0203F78E
:10022E007A0A79551204F0751700751805E4F51958
:10023E00F51AD28C12090740030203857511007559
:10024E00120130A4FDD3E5129405E511940050037C
:10025E0002034B781BA61108A61275110075120128
:10026E0018E6D3940040201208681208B6700205F2
:10027E0017240012086C1208B670020517120866D1
:10028E001208E0700205171208641208E0700205E9
:10029E001730A462D3E5129470E511941740F21250
:1002AE0008681208B670020517781BA61708A6185C
:1002BE0018E6900003F008E6A3F0120868743CF00C
:1002CE000518E51870020517240012086C743CF02E
:1002DE000518E518700205179000007443F0A3741A
:1002EE0048F0A3743AF012087BAD18AC17120C92BA
:1002FE007517027518F41209074003020242781BA3
:10030E00A61108A61218E6940040201208681208DA
:10031E00B670020517240012086C1208B67002059A
:10032E00171208661208E070020517120864120808
:10033E00E070020517E4F519F51A02024220A40333
:10034E00020242AE11AF127B507AC31208BD50EDBD
:10035E00E4F511F512051AE51A70020519941EE559
:10036E0019940040D87517027518F47A0A795A7DD7
:10037E000412050B020242C28C8071900001E0242F
:10038E00AD603014706612087512081F900000746C
:10039E0044F0A37454F0120A94900002EFF06455E6
:1003AE0060F4900003743CF0A3F012087B7D057C92
:1003BE00008036D203C2007BFF7A0A795F7D047C0F
:1003CE00008026900001E0FEB4420ED2837BFF7ABD
:1003DE000A79647D047C008010EEB4440FC2837BE6
:1003EE00FF7A0A79697D047C00120C92D28E020487
:1003FE00E87524FF75250A75266E12087B12050412
:10040E0070030204E87524FF75250A75267112081B
:10041E007B120504600D12000E7A0A79741204FA2A
:10042E000204E87524FF75250A75267F12087B12D3
:10043E00099DE94A4B601BC203750900750A01D27A
:10044E008E120C60EF4E60030204E8C203C200027B
:10045E0004E87524FF75250A75268412087B120997
:10046E009DE94A4B60657E007F107D007B017A031B
:10047E00792012081F7524FF75250A752688120823
:10048E007B12099D78207C037D017E007F10120770
:10049E00A8120C60EF4E702AC201C2007BFF7A0ACE
:1004AE00798D7D03FC120C927B017A0379207D10ED
:1004BE007C00120C927BFF7A0A79917D027C0012ED
:1004CE000C92E4F50BF50CD28E800F120C60EF4EF1
:1004DE007008C203C200F509F50AE4900002F002AA
:1004EE0000337BFF7D047C00120C92227BFF7D0A81
:1004FE007C00120C922212099DE94A4B227BFF7C52
:05050E0000120C922216
:040D0B007FFE7E01E8
:100D0F00EF7802C333CE33CED8F9FFEF1FAC0670A6
:060D1F00011E4C70F622DB
:040D8E007F50DFFEB5
:010D9200223E
:090D8400007F017EF4DEFEDFFCBD
:010D8D002243
:100CC100D2827F0A7E00120D0FC282120D0BD282D8
:100CD1007F1E7E00120D0F3082077F1E7E00120DD7
:070CE1000F120D0BD282225D
:100C2C00E4FDFBEDC313FDD2820000C28200000084
:100C3C00D28200000000003082034305807F237EB7
:100C4C0000120D0F0BBB08DBD2827F237E00120D2E
:030C5C000FAF05D2
:010C5F002272
:020CE800AD0756
:100CEA00E4FBC282120D8EED139282EDC313FD1244
:100CFA000D84D2820BBB08EAD2827F417E00020DAC
:010D0A000FD9
:100A9400E4FAFFF521F522120CC17FCC120CE87F99
:100AA40044120CE8120D0B120CC17FCC120CE87F1F
:100AB400BE120CE8120C2CAA07120C2C7521008F04
:100AC40022E522752200F521AF02EF4222E52154EE
:100AD40007FCAD22E412061EE4FBFA7980783D128D
:100AE4000513120657E52154F86009C3E49FFFE497
:040AF4009EFE8000E2
:010AF80022DB
:10051300EC4D6011E8497017ED33EC3304600DE4E2
:10052300FCFFFEFD22E933E8330470F80206C31230
:10053300068E58046009E4CC248150062850090231
:1005430006CD2840030206CAC0E0EB4A7044B980D6
:1005530006D0E0FB0206B9EF4E701CBD8008EBFF2E
:10056300EAFEE9FD80EBE98DF0A4FEE5F00205FC6F
:10057300E9CDF9EAFEEBFFEF89F0A4FCE5F0CE89C3
:10058300F0A42EFFE435F0CD89F0A42DFEE435F080
:100593008067EF4E7005BD80D780C3EF8BF0A4ACAE
:1005A300F0EE8BF0A42CFCE435F0F8EF8AF0A42CE9
:1005B300E5F038FCE433CB8DF0A42CFCE5F03BF8FC
:1005C300EE8AF0A42CFCE5F038F8E433CF89F0A4EC
:1005D3002CFCE5F038CF3400CE89F0A42FFFE5F0F2
:1005E3003EFEE433C98DF0A42EFEE5F039CD8AF04A
:1005F300A42FFFE5F03EFEE43DFD33D0E0FB5007C2
:100603000BBB000F0206CDEC2CFCEF33FFEE33FEE9
:06061300ED33FD0206A517
:1006190075F020800E75F010800575F0087D007E5C
:10062900007F003392D530D5031207FBEC3340101D
:10063900EF33FFEE33FEED33FDEC33FCD5F0ED2265
:0E064900E5F0247EA2D513CC92E7CDCEFF22A1
:10065700EDD2E7CD33EC3392D524814006E4FFFE9B
:10066700FDFC22FCE4CFCECDCC24E0501174FF80FA
:10067700EDC3CC13CCCD13CDCE13CECF13CF047097
:07068700F030D5DE0207FB95
:10068E00E9D2E7C933E833F892D5EDD2E7CD33ECB2
:07069E0033FC5002B2D5222B
:1006A500EC30E7100FBF000C0EBE00080DBD0004B6
:1006B5000BEB6014A2D5EB13FCED92E7FD2274FF62
:1006C500FCFDFEFF22E480F8A2D574FF13FC7D80BB
:0306D500E480EFCF
:10091D0002001EE493A3F8E493A34003F68001F2D2
:10092D0008DFF48029E493A3F85407240CC8C333DB
:10093D00C4540F4420C8834004F456800146F6DFAA
:10094D00E4800B0102040810204080900BE9E47E46
:10095D00019360BCA3FF543F30E509541FFEE4939F
:10096D00A360010ECF54C025E060A840B8E493A366
:10097D00FAE493A3F8E493A3C8C582C8CAC583CA91
:10098D00F0A3C8C582C8CAC583CADFE9DEE780BE49
:010C2B0000C8
:1006D800E709F608DFFA8046E709F208DFFA803E04
:1006E80088828C83E709F0A3DFFA8032E309F608F1
:1006F800DFFA8078E309F208DFFA807088828C8359
:10070800E309F0A3DFFA806489828A83E0A3F6080C
:10071800DFFA805889828A83E0A3F208DFFA804CE6
:1007280080D280FA80C680D4806980F280338010BD
:1007380080A680EA809A80A880DA80E280CA803326
:1007480089828A83ECFAE493A3C8C582C8CCC5839E
:10075800CCF0A3C8C582C8CCC583CCDFE9DEE7806E
:100768000D89828A83E493A3F608DFF9ECFAA9F0ED
:10077800EDFB2289828A83ECFAE0A3C8C582C8CC43
:10078800C583CCF0A3C8C582C8CCC583CCDFEADE5C
:10079800E880DB89828A83E493A3F208DFF980CCBE
:1007A80088F0EF60010E4E60C388F0ED2402B404B7
:1007B8000050B9F582EB2402B4040050AF2323455E
:0607C80082239007287354
:1007CE00BB010CE58229F582E5833AF583E02250E0
:1007DE0006E92582F8E622BBFE06E92582F8E2222A
:0D07EE00E58229F582E5833AF583E4932244
:0E07FB00C3E49FFFE49EFEE49DFDE49CFC220F
:10080900EB9FF5F0EA9E42F0E99D42F0EC6480C866
:0608190064809845F02206
:10099D008B218A228923AB24AA25A92612084B6014
:1009AD0063AB21AA22A92312084B605F85242785FA
:1009BD0025288526298B2A8A2B892CAB27AA28A99D
:1009CD002912084BFF6023AB2AAA2BA92C12084B26
:1009DD006F7017042529F529E43528F528740125AC
:1009ED002CF52CE4352BF52B80D1AB27AA28A92982
:1009FD0012084B7002800D74012523F523E4352276
:100A0D00F522809DAB21AA22A923227B007A0079B1
:020A1D000022B5
:10081F00EF4E6012EF60010EEDBB010B89828A83F0
:10082F00F0A3DFFCDEFA2289F05007F709DFFCA9FD
:0C083F00F022BBFEFCF309DFFCA9F02254
:10084B00BB010689828A83E0225002E722BBFE02AB
:09085B00E32289828A83E49322DE
:00000001FF
