:03000000020746AE
:0C074600787FE4F6D8FD75812C02078D49
:1008B9002B2B2B002B6F6B0041542B454E544D0DA8
:1008C9000A0041542B574D4F44450D0A0046483CF8
:1008D9003C0046573C3C0046533C3C0043413C3CB1
:1008E9000043433C3C004C423C3C004C443C3C00F3
:1008F90053443C3C0041500041542B57414B45590E
:080909000D0A004F50454E009D
:100A4300C101C100C18202090000020B00000108BC
:100A530000020D0000021300000215000002110045
:050A630000020F00007D
:100697007818E6FF74002514F58274003513F58386
:1006A700221209117524FF7525087526BD7B017A6D
:1006B7000079002274022514F514E43513F513FCB0
:1006C70074002514F58274003CF583E07817F6056D
:1006D70014E51422900003E07817F6A3E008F61853
:1006E700E6F51508E6F51622FCFD7B507AC3F9F806
:1006F70002063CE4F00514E5142274002510F58287
:100707007400350FF58322EFF00514E51422C3E5D5
:100717000E781896E50D189622E0FFC3E50E9FE5C3
:100727000D9400227E037F207D0022C3E5149516D9
:0F073700E513951522C3E51494F4E513940222FB
:0C0B26007F017ED87D23DDFEDEFCDFFABF
:010B320022A0
:030B0800120B0BC2
:0C0B0B007F097E687D8BDDFEDEFCDFFADA
:010B170022BB
:10091100E4F515F516F50FF510AE15AF16E4D31283
:1009210006EF403C30982F120701E599F0120701BC
:10093100E0B43C1174FF2510F58274FF350FF58387
:10094100E0643C601BC2980510E5107002050FE4DD
:10095100F515F51680C30516E51670BD051580B9A8
:03096100C2982217
:080003008F993099FDC299228A
:0A09E8008B218A2289238C248D259F
:1009F200E4FDFCC3ED9525EC95245018AB21AA2209
:100A0200A9238D828C83120601FF1200030DBD0003
:040A1200010C80DF74
:010A160022BD
:100AC900538E7F5389F0438902758AE8758CE8C291
:080AD9008DC28CD2AFD2A9221C
:100964007BFF7A0879B97D037C001209E812072B12
:100974001206B4120652120911900000E06461706C
:10098400217E037F20FD1206B41206527F611200FD
:10099400031206A81207D2E94A4B6006D200E4FE0D
:1009A400FF2212072B1206B41206527E007F012288
:100A69007BFF7A0879C17D097C001209E81206A882
:100A79001207D2E94A4B6006C200E4FEFF227E005B
:030A89007F0122C8
:03000B00020AF6F0
:100AF600C0E0050EE50E7002050D300102B2A5D06C
:020B0600E032DB
:100AE100438780759850438E04759CF4438E01436F
:050AF1008E10D2AC22C2
:070B3D004391105392EF22D7
:0E0B1800B2B6120B08120B08120B0BB2B6226B
:10000E00C284D2B6C283120AE1120AC9120B3D1281
:10001E000A1730021B200003120964300012120B63
:10002E00267BFF7A0879CB7D0A7C001209E8C20292
:10003E00A29492B6209443209428050AE50A7002F1
:10004E000509AE09FFE4FCFD7BFF7AFFF9F8C31248
:10005E00063C70E3F509F50A050CE50C70D9050BA5
:10006E0080D5C3E50C9405E50B9400400DC200D27B
:10007E0002E4F509F50AF50BF50C20980302041FAE
:10008E00120911900002E0643A60030203CE900060
:10009E0000E024BD70030201FB1470030203592417
:1000AE00F8700302039424F970030203B7240D6061
:1000BE000302041FC2B6900001E06448600302010F
:1000CE005AF5137514041206DBD28C120732506ED9
:1000DE00E4F50DF50ED2010514E514700205132496
:1000EE000012069FE0FF70111206BB70020513246A
:1000FE000012069FE008F68007E47817F608A607B8
:10010E0012071540FBE4F50DF50EC201D2A505143C
:10011E00E51470020513240012069FE0FF70111201
:10012E0006BB70020513240012069FE008F6800736
:10013E00E47817F608A607120715508F80F9C28CBF
:10014E007A0879D612042BD2B602041F900001E071
:10015E00645760030201E7F511F512D28CE4F50D38
:10016E00F50ED284F513751404C3E50E941CE50D3B
:10017E00940040F5E4F50DF50EC2841206DBC3E5DE
:10018E000E9428E50D940340F51207325030E4F535
:10019E000DF50ED2840514E5147002051312069B9C
:1001AE0012072040F8E4F50DF50EC2840514E5148F
:1001BE007002051312069B12072050CD80F6051211
:1001CE00E51270020511640645117091C28CC2844D
:1001DE007BFF7A0879DB0203A4900001E064536090
:1001EE000302041F7BFF7A0879E00203C97A0879BB
:1001FE00E512042B751300751405E4F515F516D2EA
:10020E008C12073C4003020354750D00750E01302D
:10021E00A4FDD3E50E9405E50D94005003020318DA
:10022E007817A60D08A60E750D00750E0118E6D3EB
:10023E009400402012069B1206FA70020513240049
:10024E0012069F1206FA7002051312069912070E75
:10025E007002051312069712070E7002051330A4D2
:10026E0062D3E50E9470E50D941740F212069B12C0
:10027E0006FA700205137817A61308A61418E6904E
:10028E000003F008E6A3F012069B743CF00514E59B
:10029E001470020513240012069F743CF00514E539
:1002AE0014700205139000007443F0A37448F0A379
:1002BE00743AF01206B4AD14AC131209E8751302B9
:1002CE007514F412073C400302020F7817A60D08AE
:1002DE00A60E18E69400402012069B1206FA700233
:1002EE000513240012069F1206FA70020513120659
:1002FE009912070E7002051312069712070E70025E
:10030E000513E4F515F51602020F20A40302020FE1
:10031E00AE0DAF0EE4C31206EF50EFE4F50DF50E81
:10032E000516E51670020515941EE515940040DAC3
:10033E007513027514F47BFF7A0879EA7D047C004C
:10034E001209E802020FC28C02041F900001E06441
:10035E0054600302041F7E037F20FD1206B41206B2
:10036E00529000007444F0A37454F012085490009C
:10037E0002EFF0645560F4900003743CF0A3F012A9
:10038E0006B47D05805E900001E0FEB4420CD2837F
:10039E007BFF7A0879EF7D04804AEE64447072C266
:1003AE00837BFF7A0879F48012900001E064447038
:1003BE0060D202C2007BFF7A0879F97D04FC8026A8
:1003CE001206AB12043560497524FF752508752693
:1003DE00FE1206B41204356012120B267BFF7A0948
:1003EE0079017D0A7C001209E880267524FF7525A7
:1003FE000975260C1206B41207D2E94A4B6007D2D1
:10040E0002120B18800B120A69EF4E6004C202C270
:10041E000012072B1206B41206520200207BFF7D3B
:0E042E00047C001209E8221207D2E94A4B2290
:040AAF007FFE7E0147
:100AB300EF7802C333CE33CED8F9FFEF1FAC067005
:060AC300011E4C70F6223A
:040B44007F50DFFE01
:010B4800228A
:090B3300007F017EF4DEFEDFFC10
:010B3C002296
:100A1700D2827F0A7E00120AB3C282120AAFD28242
:100A27007F1E7E00120AB330820C7F311200037FD3
:0C0A37001E7E00120AB3120AAFD2822207
:1009B400E4FDFBEDC313FDD2820000C282000000FF
:1009C400D28200000000003082034305807F237E32
:1009D40000120AB30BBB08DBD2827F237E00120A0B
:0309E400B3AF05A9
:0109E70022ED
:020A8C00AD07B4
:100A8E00E4FBC282120B44ED139282EDC313FD12EE
:100A9E000B33D2820BBB08EAD2827F417E00020A60
:010AAE00B394
:10085400E4FAFFF521F522120A177FCC120A8C7FE5
:1008640044120A8C120AAF120A177FCC120A8C7F28
:10087400BE120A8C1209B4AA071209B47521008F9A
:1008840022E522752200F521AF02EF4222E5215430
:1008940007FCAD22E4120547E4FBFA7980783D12A7
:1008A400043C120580E52154F86009C3E49FFFE489
:0408B4009EFE800024
:0108B800221D
:10043C00EC4D6011E8497017ED33EC3304600DE4BA
:10044C00FCFFFEFD22E933E8330470F80205EC12E0
:10045C0005B758046009E4CC2481500628500902E1
:10046C0005F62840030205F3C0E0EB4A7044B9805E
:10047C0006D0E0FB0205E2EF4E701CBD8008EBFFDE
:10048C00EAFEE9FD80EBE98DF0A4FEE5F00205251E
:10049C00E9CDF9EAFEEBFFEF89F0A4FCE5F0CE899B
:1004AC00F0A42EFFE435F0CD89F0A42DFEE435F058
:1004BC008067EF4E7005BD80D780C3EF8BF0A4AC86
:1004CC00F0EE8BF0A42CFCE435F0F8EF8AF0A42CC1
:1004DC00E5F038FCE433CB8DF0A42CFCE5F03BF8D4
:1004EC00EE8AF0A42CFCE5F038F8E433CF89F0A4C4
:1004FC002CFCE5F038CF3400CE89F0A42FFFE5F0CA
:10050C003EFEE433C98DF0A42EFEE5F039CD8AF021
:10051C00A42FFFE5F03EFEE43DFD33D0E0FB500799
:10052C000BBB000F0205F6EC2CFCEF33FFEE33FE99
:06053C00ED33FD0205CEC7
:1005420075F020800E75F010800575F0087D007E34
:10055200007F003392D530D50312062EEC334010C3
:10056200EF33FFEE33FEED33FDEC33FCD5F0ED223D
:0E057200E5F0247EA2D513CC92E7CDCEFF2279
:10058000EDD2E7CD33EC3392D524814006E4FFFE73
:10059000FDFC22FCE4CFCECDCC24E0501174FF80D2
:1005A000EDC3CC13CCCD13CDCE13CECF13CF04706F
:0705B000F030D5DE02062E3B
:1005B700E9D2E7C933E833F892D5EDD2E7CD33EC8A
:0705C70033FC5002B2D52203
:1005CE00EC30E7100FBF000C0EBE00080DBD00048E
:1005DE000BEB6014A2D5EB13FCED92E7FD2274FF3A
:1005EE00FCFDFEFF22E480F8A2D574FF13FC7D8093
:0305FE00E480EFA7
:1007520002000EE493A3F8E493A34003F68001F2AF
:1007620008DFF48029E493A3F85407240CC8C333A8
:10077200C4540F4420C8834004F456800146F6DF77
:10078200E4800B0102040810204080900A43E47EBA
:10079200019360BCA3FF543F30E509541FFEE4936C
:1007A200A360010ECF54C025E060A840B8E493A333
:1007B200FAE493A3F8E493A3C8C582C8CAC583CA5E
:1007C200F0A3C8C582C8CAC583CADFE9DEE780BE16
:010A6800008D
:10060100BB010CE58229F582E5833AF583E02250AE
:1006110006E92582F8E622BBFE06E92582F8E222F8
:0D062100E58229F582E5833AF583E4932212
:0E062E00C3E49FFFE49EFEE49DFDE49CFC22DD
:10063C00EB9FF5F0EA9E42F0E99D42F0EC6480C835
:06064C0064809845F022D5
:1007D2008B218A228923AB24AA25A92612067E60B0
:1007E20063AB21AA22A92312067E605F8524278596
:1007F20025288526298B2A8A2B892CAB27AA28A96A
:100802002912067EFF6023AB2AAA2BA92C12067E90
:100812006F7017042529F529E43528F52874012578
:100822002CF52CE4352BF52B80D1AB27AA28A9294E
:1008320012067E7002800D74012523F523E4352211
:10084200F522809DAB21AA22A923227B007A00797E
:02085200002282
:10065200EF4E6012EF60010EEDBB010B89828A83BF
:10066200F0A3DFFCDEFA2289F05007F709DFFCA9CC
:0C067200F022BBFEFCF309DFFCA9F02223
:10067E00BB010689828A83E0225002E722BBFE027A
:09068E00E32289828A83E49322AD
:00000001FF
